{
	"tipjar.sol": {
		"tips": {
			"abi": [
				{
					"inputs": [],
					"stateMutability": "nonpayable",
					"type": "constructor"
				},
				{
					"inputs": [
						{
							"internalType": "address payable",
							"name": "walletAddress",
							"type": "address"
						},
						{
							"internalType": "string",
							"name": "name",
							"type": "string"
						},
						{
							"internalType": "uint256",
							"name": "percent",
							"type": "uint256"
						}
					],
					"name": "addWaitress",
					"outputs": [],
					"stateMutability": "nonpayable",
					"type": "function"
				},
				{
					"inputs": [],
					"name": "addtips",
					"outputs": [],
					"stateMutability": "payable",
					"type": "function"
				},
				{
					"inputs": [],
					"name": "distributeBalance",
					"outputs": [],
					"stateMutability": "nonpayable",
					"type": "function"
				},
				{
					"inputs": [
						{
							"internalType": "address",
							"name": "walletAddress",
							"type": "address"
						}
					],
					"name": "removeWaitress",
					"outputs": [],
					"stateMutability": "nonpayable",
					"type": "function"
				},
				{
					"inputs": [],
					"name": "viewWaitress",
					"outputs": [
						{
							"components": [
								{
									"internalType": "address payable",
									"name": "walletAddress",
									"type": "address"
								},
								{
									"internalType": "string",
									"name": "name",
									"type": "string"
								},
								{
									"internalType": "uint256",
									"name": "percent",
									"type": "uint256"
								}
							],
							"internalType": "struct tips.Waitress[]",
							"name": "",
							"type": "tuple[]"
						}
					],
					"stateMutability": "view",
					"type": "function"
				},
				{
					"inputs": [],
					"name": "viewtips",
					"outputs": [
						{
							"internalType": "uint256",
							"name": "",
							"type": "uint256"
						}
					],
					"stateMutability": "view",
					"type": "function"
				}
			],
			"devdoc": {
				"kind": "dev",
				"methods": {},
				"version": 1
			},
			"evm": {
				"assembly": "    /* \"tipjar.sol\":60:2617  contract tips {... */\n  mstore(0x40, 0x80)\n    /* \"tipjar.sol\":103:154  constructor() {... */\n  callvalue\n  dup1\n  iszero\n  tag_1\n  jumpi\n  revert(0x00, 0x00)\ntag_1:\n  pop\n    /* \"tipjar.sol\":136:146  msg.sender */\n  caller\n    /* \"tipjar.sol\":128:133  owner */\n  0x00\n  0x00\n    /* \"tipjar.sol\":128:146  owner = msg.sender */\n  0x0100\n  exp\n  dup2\n  sload\n  dup2\n  0xffffffffffffffffffffffffffffffffffffffff\n  mul\n  not\n  and\n  swap1\n  dup4\n  0xffffffffffffffffffffffffffffffffffffffff\n  and\n  mul\n  or\n  swap1\n  sstore\n  pop\n    /* \"tipjar.sol\":60:2617  contract tips {... */\n  dataSize(sub_0)\n  dup1\n  dataOffset(sub_0)\n  0x00\n  codecopy\n  0x00\n  return\nstop\n\nsub_0: assembly {\n        /* \"tipjar.sol\":60:2617  contract tips {... */\n      mstore(0x40, 0x80)\n      jumpi(tag_1, lt(calldatasize, 0x04))\n      shr(0xe0, calldataload(0x00))\n      dup1\n      0x2a08deda\n      eq\n      tag_2\n      jumpi\n      dup1\n      0x369a489d\n      eq\n      tag_3\n      jumpi\n      dup1\n      0x6e7301fd\n      eq\n      tag_4\n      jumpi\n      dup1\n      0x7943da69\n      eq\n      tag_5\n      jumpi\n      dup1\n      0xb499b79a\n      eq\n      tag_6\n      jumpi\n      dup1\n      0xe83a1b00\n      eq\n      tag_7\n      jumpi\n    tag_1:\n      revert(0x00, 0x00)\n        /* \"tipjar.sol\":268:361  function viewtips() public view returns(uint) {... */\n    tag_2:\n      callvalue\n      dup1\n      iszero\n      tag_8\n      jumpi\n      revert(0x00, 0x00)\n    tag_8:\n      pop\n      tag_9\n      tag_10\n      jump\t// in\n    tag_9:\n      mload(0x40)\n      tag_11\n      swap2\n      swap1\n      tag_12\n      jump\t// in\n    tag_11:\n      mload(0x40)\n      dup1\n      swap2\n      sub\n      swap1\n      return\n        /* \"tipjar.sol\":1572:2100  function removeWaitress(address walletAddress) public onlyOwner {... */\n    tag_3:\n      callvalue\n      dup1\n      iszero\n      tag_13\n      jumpi\n      revert(0x00, 0x00)\n    tag_13:\n      pop\n      tag_14\n      0x04\n      dup1\n      calldatasize\n      sub\n      dup2\n      add\n      swap1\n      tag_15\n      swap2\n      swap1\n      tag_16\n      jump\t// in\n    tag_15:\n      tag_17\n      jump\t// in\n    tag_14:\n      stop\n        /* \"tipjar.sol\":200:236  function addtips() payable public {} */\n    tag_4:\n      tag_18\n      tag_19\n      jump\t// in\n    tag_18:\n      stop\n        /* \"tipjar.sol\":1055:1551  function distributeBalance() public {... */\n    tag_5:\n      callvalue\n      dup1\n      iszero\n      tag_20\n      jumpi\n      revert(0x00, 0x00)\n    tag_20:\n      pop\n      tag_21\n      tag_22\n      jump\t// in\n    tag_21:\n      stop\n        /* \"tipjar.sol\":2110:2612  function addWaitress(address payable walletAddress, string memory name, uint percent) public onlyOwner {... */\n    tag_6:\n      callvalue\n      dup1\n      iszero\n      tag_23\n      jumpi\n      revert(0x00, 0x00)\n    tag_23:\n      pop\n      tag_24\n      0x04\n      dup1\n      calldatasize\n      sub\n      dup2\n      add\n      swap1\n      tag_25\n      swap2\n      swap1\n      tag_26\n      jump\t// in\n    tag_25:\n      tag_27\n      jump\t// in\n    tag_24:\n      stop\n        /* \"tipjar.sol\":642:739  function viewWaitress() public view returns(Waitress[] memory) {... */\n    tag_7:\n      callvalue\n      dup1\n      iszero\n      tag_28\n      jumpi\n      revert(0x00, 0x00)\n    tag_28:\n      pop\n      tag_29\n      tag_30\n      jump\t// in\n    tag_29:\n      mload(0x40)\n      tag_31\n      swap2\n      swap1\n      tag_32\n      jump\t// in\n    tag_31:\n      mload(0x40)\n      dup1\n      swap2\n      sub\n      swap1\n      return\n        /* \"tipjar.sol\":268:361  function viewtips() public view returns(uint) {... */\n    tag_10:\n        /* \"tipjar.sol\":308:312  uint */\n      0x00\n        /* \"tipjar.sol\":332:353  address(this).balance */\n      selfbalance\n        /* \"tipjar.sol\":325:353  return address(this).balance */\n      swap1\n      pop\n        /* \"tipjar.sol\":268:361  function viewtips() public view returns(uint) {... */\n      swap1\n      jump\t// out\n        /* \"tipjar.sol\":1572:2100  function removeWaitress(address walletAddress) public onlyOwner {... */\n    tag_17:\n        /* \"tipjar.sol\":799:804  owner */\n      0x00\n      0x00\n      swap1\n      sload\n      swap1\n      0x0100\n      exp\n      swap1\n      div\n      0xffffffffffffffffffffffffffffffffffffffff\n      and\n        /* \"tipjar.sol\":785:804  msg.sender == owner */\n      0xffffffffffffffffffffffffffffffffffffffff\n      and\n        /* \"tipjar.sol\":785:795  msg.sender */\n      caller\n        /* \"tipjar.sol\":785:804  msg.sender == owner */\n      0xffffffffffffffffffffffffffffffffffffffff\n      and\n      eq\n        /* \"tipjar.sol\":777:828  require(msg.sender == owner, \"Only owner can call\") */\n      tag_35\n      jumpi\n      mload(0x40)\n      0x08c379a000000000000000000000000000000000000000000000000000000000\n      dup2\n      mstore\n      0x04\n      add\n      tag_36\n      swap1\n      tag_37\n      jump\t// in\n    tag_36:\n      mload(0x40)\n      dup1\n      swap2\n      sub\n      swap1\n      revert\n    tag_35:\n        /* \"tipjar.sol\":1669:1670  1 */\n      0x01\n        /* \"tipjar.sol\":1650:1658  waitress */\n      dup1\n        /* \"tipjar.sol\":1650:1665  waitress.length */\n      dup1\n      sload\n      swap1\n      pop\n        /* \"tipjar.sol\":1650:1670  waitress.length >= 1 */\n      lt\n        /* \"tipjar.sol\":1647:2093  if(waitress.length >= 1){... */\n      tag_39\n      jumpi\n        /* \"tipjar.sol\":1690:1696  uint i */\n      0x00\n        /* \"tipjar.sol\":1697:1698  0 */\n      0x00\n        /* \"tipjar.sol\":1690:1698  uint i=0 */\n      swap1\n      pop\n        /* \"tipjar.sol\":1686:2082  for(uint i=0; i<waitress.length; i++){... */\n    tag_40:\n        /* \"tipjar.sol\":1702:1710  waitress */\n      0x01\n        /* \"tipjar.sol\":1702:1717  waitress.length */\n      dup1\n      sload\n      swap1\n      pop\n        /* \"tipjar.sol\":1700:1701  i */\n      dup2\n        /* \"tipjar.sol\":1700:1717  i<waitress.length */\n      lt\n        /* \"tipjar.sol\":1686:2082  for(uint i=0; i<waitress.length; i++){... */\n      iszero\n      tag_41\n      jumpi\n        /* \"tipjar.sol\":1774:1787  walletAddress */\n      dup2\n        /* \"tipjar.sol\":1745:1787  waitress[i].walletAddress == walletAddress */\n      0xffffffffffffffffffffffffffffffffffffffff\n      and\n        /* \"tipjar.sol\":1745:1753  waitress */\n      0x01\n        /* \"tipjar.sol\":1754:1755  i */\n      dup3\n        /* \"tipjar.sol\":1745:1756  waitress[i] */\n      dup2\n      sload\n      dup2\n      lt\n      tag_43\n      jumpi\n      tag_44\n      tag_45\n      jump\t// in\n    tag_44:\n    tag_43:\n      swap1\n      0x00\n      mstore\n      keccak256(0x00, 0x20)\n      swap1\n      0x03\n      mul\n      add\n        /* \"tipjar.sol\":1745:1770  waitress[i].walletAddress */\n      0x00\n      add\n      0x00\n      swap1\n      sload\n      swap1\n      0x0100\n      exp\n      swap1\n      div\n      0xffffffffffffffffffffffffffffffffffffffff\n      and\n        /* \"tipjar.sol\":1745:1787  waitress[i].walletAddress == walletAddress */\n      0xffffffffffffffffffffffffffffffffffffffff\n      and\n      sub\n        /* \"tipjar.sol\":1742:2067  if(waitress[i].walletAddress == walletAddress){... */\n      tag_47\n      jumpi\n        /* \"tipjar.sol\":1860:1866  uint j */\n      0x00\n        /* \"tipjar.sol\":1869:1870  i */\n      dup2\n        /* \"tipjar.sol\":1860:1870  uint j = i */\n      swap1\n      pop\n        /* \"tipjar.sol\":1855:1982  for (uint j = i; j < waitress.length - 1; j++) {... */\n    tag_48:\n        /* \"tipjar.sol\":1894:1895  1 */\n      0x01\n        /* \"tipjar.sol\":1876:1884  waitress */\n      dup1\n        /* \"tipjar.sol\":1876:1891  waitress.length */\n      dup1\n      sload\n      swap1\n      pop\n        /* \"tipjar.sol\":1876:1895  waitress.length - 1 */\n      tag_51\n      swap2\n      swap1\n      tag_52\n      jump\t// in\n    tag_51:\n        /* \"tipjar.sol\":1872:1873  j */\n      dup2\n        /* \"tipjar.sol\":1872:1895  j < waitress.length - 1 */\n      lt\n        /* \"tipjar.sol\":1855:1982  for (uint j = i; j < waitress.length - 1; j++) {... */\n      iszero\n      tag_49\n      jumpi\n        /* \"tipjar.sol\":1943:1951  waitress */\n      0x01\n        /* \"tipjar.sol\":1956:1957  1 */\n      dup1\n        /* \"tipjar.sol\":1952:1953  j */\n      dup3\n        /* \"tipjar.sol\":1952:1957  j + 1 */\n      tag_53\n      swap2\n      swap1\n      tag_54\n      jump\t// in\n    tag_53:\n        /* \"tipjar.sol\":1943:1958  waitress[j + 1] */\n      dup2\n      sload\n      dup2\n      lt\n      tag_55\n      jumpi\n      tag_56\n      tag_45\n      jump\t// in\n    tag_56:\n    tag_55:\n      swap1\n      0x00\n      mstore\n      keccak256(0x00, 0x20)\n      swap1\n      0x03\n      mul\n      add\n        /* \"tipjar.sol\":1929:1937  waitress */\n      0x01\n        /* \"tipjar.sol\":1938:1939  j */\n      dup3\n        /* \"tipjar.sol\":1929:1940  waitress[j] */\n      dup2\n      sload\n      dup2\n      lt\n      tag_58\n      jumpi\n      tag_59\n      tag_45\n      jump\t// in\n    tag_59:\n    tag_58:\n      swap1\n      0x00\n      mstore\n      keccak256(0x00, 0x20)\n      swap1\n      0x03\n      mul\n      add\n        /* \"tipjar.sol\":1929:1958  waitress[j] = waitress[j + 1] */\n      0x00\n      dup3\n      add\n      0x00\n      swap1\n      sload\n      swap1\n      0x0100\n      exp\n      swap1\n      div\n      0xffffffffffffffffffffffffffffffffffffffff\n      and\n      dup2\n      0x00\n      add\n      exp(0x0100, 0x00)\n      dup2\n      sload\n      dup2\n      0xffffffffffffffffffffffffffffffffffffffff\n      mul\n      not\n      and\n      swap1\n      dup4\n      0xffffffffffffffffffffffffffffffffffffffff\n      and\n      mul\n      or\n      swap1\n      sstore\n      pop\n      0x01\n      dup3\n      add\n      dup2\n      0x01\n      add\n      swap1\n      dup2\n      tag_61\n      swap2\n      swap1\n      tag_62\n      jump\t// in\n    tag_61:\n      pop\n      0x02\n      dup3\n      add\n      sload\n      dup2\n      0x02\n      add\n      sstore\n      swap1\n      pop\n      pop\n        /* \"tipjar.sol\":1897:1900  j++ */\n      dup1\n      dup1\n      0x01\n      add\n      swap2\n      pop\n      pop\n        /* \"tipjar.sol\":1855:1982  for (uint j = i; j < waitress.length - 1; j++) {... */\n      jump(tag_48)\n    tag_49:\n      pop\n        /* \"tipjar.sol\":2004:2012  waitress */\n      0x01\n        /* \"tipjar.sol\":2004:2018  waitress.pop() */\n      dup1\n      sload\n      dup1\n      tag_63\n      jumpi\n      tag_64\n      tag_65\n      jump\t// in\n    tag_64:\n    tag_63:\n      0x01\n      swap1\n      sub\n      dup2\n      dup2\n      swap1\n      0x00\n      mstore\n      keccak256(0x00, 0x20)\n      swap1\n      0x03\n      mul\n      add\n      0x00\n      0x00\n      dup3\n      add\n      exp(0x0100, 0x00)\n      dup2\n      sload\n      swap1\n      0xffffffffffffffffffffffffffffffffffffffff\n      mul\n      not\n      and\n      swap1\n      sstore\n      0x01\n      dup3\n      add\n      0x00\n      tag_67\n      swap2\n      swap1\n      tag_68\n      jump\t// in\n    tag_67:\n      0x02\n      dup3\n      add\n      0x00\n      swap1\n      sstore\n      pop\n      pop\n      swap1\n      sstore\n        /* \"tipjar.sol\":2042:2047  break */\n      jump(tag_41)\n        /* \"tipjar.sol\":1742:2067  if(waitress[i].walletAddress == walletAddress){... */\n    tag_47:\n        /* \"tipjar.sol\":1719:1722  i++ */\n      dup1\n      dup1\n      0x01\n      add\n      swap2\n      pop\n      pop\n        /* \"tipjar.sol\":1686:2082  for(uint i=0; i<waitress.length; i++){... */\n      jump(tag_40)\n    tag_41:\n      pop\n        /* \"tipjar.sol\":1647:2093  if(waitress.length >= 1){... */\n    tag_39:\n        /* \"tipjar.sol\":1572:2100  function removeWaitress(address walletAddress) public onlyOwner {... */\n      pop\n      jump\t// out\n        /* \"tipjar.sol\":200:236  function addtips() payable public {} */\n    tag_19:\n      jump\t// out\n        /* \"tipjar.sol\":1055:1551  function distributeBalance() public {... */\n    tag_22:\n        /* \"tipjar.sol\":1134:1135  0 */\n      0x00\n        /* \"tipjar.sol\":1110:1131  address(this).balance */\n      selfbalance\n        /* \"tipjar.sol\":1110:1135  address(this).balance > 0 */\n      gt\n        /* \"tipjar.sol\":1102:1148  require(address(this).balance > 0, \"No Money\") */\n      tag_71\n      jumpi\n      mload(0x40)\n      0x08c379a000000000000000000000000000000000000000000000000000000000\n      dup2\n      mstore\n      0x04\n      add\n      tag_72\n      swap1\n      tag_73\n      jump\t// in\n    tag_72:\n      mload(0x40)\n      dup1\n      swap2\n      sub\n      swap1\n      revert\n    tag_71:\n        /* \"tipjar.sol\":1181:1182  1 */\n      0x01\n        /* \"tipjar.sol\":1162:1170  waitress */\n      dup1\n        /* \"tipjar.sol\":1162:1177  waitress.length */\n      dup1\n      sload\n      swap1\n      pop\n        /* \"tipjar.sol\":1162:1182  waitress.length >= 1 */\n      lt\n        /* \"tipjar.sol\":1159:1544  if(waitress.length >= 1){... */\n      tag_74\n      jumpi\n        /* \"tipjar.sol\":1198:1214  uint totalamount */\n      0x00\n        /* \"tipjar.sol\":1217:1238  address(this).balance */\n      selfbalance\n        /* \"tipjar.sol\":1198:1238  uint totalamount = address(this).balance */\n      swap1\n      pop\n        /* \"tipjar.sol\":1257:1263  uint j */\n      0x00\n        /* \"tipjar.sol\":1264:1265  0 */\n      0x00\n        /* \"tipjar.sol\":1257:1265  uint j=0 */\n      swap1\n      pop\n        /* \"tipjar.sol\":1253:1533  for(uint j=0; j<waitress.length; j++){... */\n    tag_75:\n        /* \"tipjar.sol\":1269:1277  waitress */\n      0x01\n        /* \"tipjar.sol\":1269:1284  waitress.length */\n      dup1\n      sload\n      swap1\n      pop\n        /* \"tipjar.sol\":1267:1268  j */\n      dup2\n        /* \"tipjar.sol\":1267:1284  j<waitress.length */\n      lt\n        /* \"tipjar.sol\":1253:1533  for(uint j=0; j<waitress.length; j++){... */\n      iszero\n      tag_76\n      jumpi\n        /* \"tipjar.sol\":1345:1366  uint distributeAmount */\n      0x00\n        /* \"tipjar.sol\":1405:1408  100 */\n      0x64\n        /* \"tipjar.sol\":1383:1391  waitress */\n      0x01\n        /* \"tipjar.sol\":1392:1393  j */\n      dup4\n        /* \"tipjar.sol\":1383:1394  waitress[j] */\n      dup2\n      sload\n      dup2\n      lt\n      tag_78\n      jumpi\n      tag_79\n      tag_45\n      jump\t// in\n    tag_79:\n    tag_78:\n      swap1\n      0x00\n      mstore\n      keccak256(0x00, 0x20)\n      swap1\n      0x03\n      mul\n      add\n        /* \"tipjar.sol\":1383:1402  waitress[j].percent */\n      0x02\n      add\n      sload\n        /* \"tipjar.sol\":1369:1380  totalamount */\n      dup5\n        /* \"tipjar.sol\":1369:1402  totalamount * waitress[j].percent */\n      tag_81\n      swap2\n      swap1\n      tag_82\n      jump\t// in\n    tag_81:\n        /* \"tipjar.sol\":1369:1408  totalamount * waitress[j].percent / 100 */\n      tag_83\n      swap2\n      swap1\n      tag_84\n      jump\t// in\n    tag_83:\n        /* \"tipjar.sol\":1345:1408  uint distributeAmount = totalamount * waitress[j].percent / 100 */\n      swap1\n      pop\n        /* \"tipjar.sol\":1458:1517  _transferFunds(waitress[j].walletAddress, distributeAmount) */\n      tag_85\n        /* \"tipjar.sol\":1473:1481  waitress */\n      0x01\n        /* \"tipjar.sol\":1482:1483  j */\n      dup4\n        /* \"tipjar.sol\":1473:1484  waitress[j] */\n      dup2\n      sload\n      dup2\n      lt\n      tag_86\n      jumpi\n      tag_87\n      tag_45\n      jump\t// in\n    tag_87:\n    tag_86:\n      swap1\n      0x00\n      mstore\n      keccak256(0x00, 0x20)\n      swap1\n      0x03\n      mul\n      add\n        /* \"tipjar.sol\":1473:1498  waitress[j].walletAddress */\n      0x00\n      add\n      0x00\n      swap1\n      sload\n      swap1\n      0x0100\n      exp\n      swap1\n      div\n      0xffffffffffffffffffffffffffffffffffffffff\n      and\n        /* \"tipjar.sol\":1500:1516  distributeAmount */\n      dup3\n        /* \"tipjar.sol\":1458:1472  _transferFunds */\n      tag_89\n        /* \"tipjar.sol\":1458:1517  _transferFunds(waitress[j].walletAddress, distributeAmount) */\n      jump\t// in\n    tag_85:\n        /* \"tipjar.sol\":1290:1533  {... */\n      pop\n        /* \"tipjar.sol\":1286:1289  j++ */\n      dup1\n      dup1\n      0x01\n      add\n      swap2\n      pop\n      pop\n        /* \"tipjar.sol\":1253:1533  for(uint j=0; j<waitress.length; j++){... */\n      jump(tag_75)\n    tag_76:\n      pop\n        /* \"tipjar.sol\":1183:1544  {... */\n      pop\n        /* \"tipjar.sol\":1159:1544  if(waitress.length >= 1){... */\n    tag_74:\n        /* \"tipjar.sol\":1055:1551  function distributeBalance() public {... */\n      jump\t// out\n        /* \"tipjar.sol\":2110:2612  function addWaitress(address payable walletAddress, string memory name, uint percent) public onlyOwner {... */\n    tag_27:\n        /* \"tipjar.sol\":799:804  owner */\n      0x00\n      0x00\n      swap1\n      sload\n      swap1\n      0x0100\n      exp\n      swap1\n      div\n      0xffffffffffffffffffffffffffffffffffffffff\n      and\n        /* \"tipjar.sol\":785:804  msg.sender == owner */\n      0xffffffffffffffffffffffffffffffffffffffff\n      and\n        /* \"tipjar.sol\":785:795  msg.sender */\n      caller\n        /* \"tipjar.sol\":785:804  msg.sender == owner */\n      0xffffffffffffffffffffffffffffffffffffffff\n      and\n      eq\n        /* \"tipjar.sol\":777:828  require(msg.sender == owner, \"Only owner can call\") */\n      tag_91\n      jumpi\n      mload(0x40)\n      0x08c379a000000000000000000000000000000000000000000000000000000000\n      dup2\n      mstore\n      0x04\n      add\n      tag_92\n      swap1\n      tag_37\n      jump\t// in\n    tag_92:\n      mload(0x40)\n      dup1\n      swap2\n      sub\n      swap1\n      revert\n    tag_91:\n        /* \"tipjar.sol\":2224:2242  bool waitressExist */\n      0x00\n        /* \"tipjar.sol\":2245:2250  false */\n      0x00\n        /* \"tipjar.sol\":2224:2250  bool waitressExist = false */\n      swap1\n      pop\n        /* \"tipjar.sol\":2283:2284  1 */\n      0x01\n        /* \"tipjar.sol\":2264:2272  waitress */\n      dup1\n        /* \"tipjar.sol\":2264:2279  waitress.length */\n      dup1\n      sload\n      swap1\n      pop\n        /* \"tipjar.sol\":2264:2284  waitress.length >= 1 */\n      lt\n        /* \"tipjar.sol\":2261:2464  if(waitress.length >= 1){for(uint i=0; i<waitress.length; i++){... */\n      tag_94\n      jumpi\n        /* \"tipjar.sol\":2290:2296  uint i */\n      0x00\n        /* \"tipjar.sol\":2297:2298  0 */\n      0x00\n        /* \"tipjar.sol\":2290:2298  uint i=0 */\n      swap1\n      pop\n        /* \"tipjar.sol\":2286:2461  for(uint i=0; i<waitress.length; i++){... */\n    tag_95:\n        /* \"tipjar.sol\":2302:2310  waitress */\n      0x01\n        /* \"tipjar.sol\":2302:2317  waitress.length */\n      dup1\n      sload\n      swap1\n      pop\n        /* \"tipjar.sol\":2300:2301  i */\n      dup2\n        /* \"tipjar.sol\":2300:2317  i<waitress.length */\n      lt\n        /* \"tipjar.sol\":2286:2461  for(uint i=0; i<waitress.length; i++){... */\n      iszero\n      tag_96\n      jumpi\n        /* \"tipjar.sol\":2373:2386  walletAddress */\n      dup5\n        /* \"tipjar.sol\":2344:2386  waitress[i].walletAddress == walletAddress */\n      0xffffffffffffffffffffffffffffffffffffffff\n      and\n        /* \"tipjar.sol\":2344:2352  waitress */\n      0x01\n        /* \"tipjar.sol\":2353:2354  i */\n      dup3\n        /* \"tipjar.sol\":2344:2355  waitress[i] */\n      dup2\n      sload\n      dup2\n      lt\n      tag_98\n      jumpi\n      tag_99\n      tag_45\n      jump\t// in\n    tag_99:\n    tag_98:\n      swap1\n      0x00\n      mstore\n      keccak256(0x00, 0x20)\n      swap1\n      0x03\n      mul\n      add\n        /* \"tipjar.sol\":2344:2369  waitress[i].walletAddress */\n      0x00\n      add\n      0x00\n      swap1\n      sload\n      swap1\n      0x0100\n      exp\n      swap1\n      div\n      0xffffffffffffffffffffffffffffffffffffffff\n      and\n        /* \"tipjar.sol\":2344:2386  waitress[i].walletAddress == walletAddress */\n      0xffffffffffffffffffffffffffffffffffffffff\n      and\n      sub\n        /* \"tipjar.sol\":2341:2445  if(waitress[i].walletAddress == walletAddress){... */\n      tag_101\n      jumpi\n        /* \"tipjar.sol\":2422:2426  true */\n      0x01\n        /* \"tipjar.sol\":2406:2426  waitressExist = true */\n      swap2\n      pop\n        /* \"tipjar.sol\":2341:2445  if(waitress[i].walletAddress == walletAddress){... */\n    tag_101:\n        /* \"tipjar.sol\":2319:2322  i++ */\n      dup1\n      dup1\n      0x01\n      add\n      swap2\n      pop\n      pop\n        /* \"tipjar.sol\":2286:2461  for(uint i=0; i<waitress.length; i++){... */\n      jump(tag_95)\n    tag_96:\n      pop\n        /* \"tipjar.sol\":2261:2464  if(waitress.length >= 1){for(uint i=0; i<waitress.length; i++){... */\n    tag_94:\n        /* \"tipjar.sol\":2519:2524  false */\n      0x00\n        /* \"tipjar.sol\":2502:2524  waitressExist == false */\n      iszero\n      iszero\n        /* \"tipjar.sol\":2502:2515  waitressExist */\n      dup2\n        /* \"tipjar.sol\":2502:2524  waitressExist == false */\n      iszero\n      iszero\n      sub\n        /* \"tipjar.sol\":2499:2605  if(waitressExist == false){... */\n      tag_102\n      jumpi\n        /* \"tipjar.sol\":2540:2548  waitress */\n      0x01\n        /* \"tipjar.sol\":2554:2592  Waitress(walletAddress, name, percent) */\n      mload(0x40)\n      dup1\n      0x60\n      add\n      0x40\n      mstore\n      dup1\n        /* \"tipjar.sol\":2563:2576  walletAddress */\n      dup7\n        /* \"tipjar.sol\":2554:2592  Waitress(walletAddress, name, percent) */\n      0xffffffffffffffffffffffffffffffffffffffff\n      and\n      dup2\n      mstore\n      0x20\n      add\n        /* \"tipjar.sol\":2578:2582  name */\n      dup6\n        /* \"tipjar.sol\":2554:2592  Waitress(walletAddress, name, percent) */\n      dup2\n      mstore\n      0x20\n      add\n        /* \"tipjar.sol\":2584:2591  percent */\n      dup5\n        /* \"tipjar.sol\":2554:2592  Waitress(walletAddress, name, percent) */\n      dup2\n      mstore\n      pop\n        /* \"tipjar.sol\":2540:2593  waitress.push(Waitress(walletAddress, name, percent)) */\n      swap1\n      dup1\n      0x01\n      dup2\n      sload\n      add\n      dup1\n      dup3\n      sstore\n      dup1\n      swap2\n      pop\n      pop\n      0x01\n      swap1\n      sub\n      swap1\n      0x00\n      mstore\n      keccak256(0x00, 0x20)\n      swap1\n      0x03\n      mul\n      add\n      0x00\n      swap1\n      swap2\n      swap1\n      swap2\n      swap1\n      swap2\n      pop\n      0x00\n      dup3\n      add\n      mload\n      dup2\n      0x00\n      add\n      exp(0x0100, 0x00)\n      dup2\n      sload\n      dup2\n      0xffffffffffffffffffffffffffffffffffffffff\n      mul\n      not\n      and\n      swap1\n      dup4\n      0xffffffffffffffffffffffffffffffffffffffff\n      and\n      mul\n      or\n      swap1\n      sstore\n      pop\n      0x20\n      dup3\n      add\n      mload\n      dup2\n      0x01\n      add\n      swap1\n      dup2\n      tag_104\n      swap2\n      swap1\n      tag_105\n      jump\t// in\n    tag_104:\n      pop\n      0x40\n      dup3\n      add\n      mload\n      dup2\n      0x02\n      add\n      sstore\n      pop\n      pop\n        /* \"tipjar.sol\":2499:2605  if(waitressExist == false){... */\n    tag_102:\n        /* \"tipjar.sol\":2213:2612  {... */\n      pop\n        /* \"tipjar.sol\":2110:2612  function addWaitress(address payable walletAddress, string memory name, uint percent) public onlyOwner {... */\n      pop\n      pop\n      pop\n      jump\t// out\n        /* \"tipjar.sol\":642:739  function viewWaitress() public view returns(Waitress[] memory) {... */\n    tag_30:\n        /* \"tipjar.sol\":686:703  Waitress[] memory */\n      0x60\n        /* \"tipjar.sol\":723:731  waitress */\n      0x01\n        /* \"tipjar.sol\":716:731  return waitress */\n      dup1\n      sload\n      dup1\n      0x20\n      mul\n      0x20\n      add\n      mload(0x40)\n      swap1\n      dup2\n      add\n      0x40\n      mstore\n      dup1\n      swap3\n      swap2\n      swap1\n      dup2\n      dup2\n      mstore\n      0x20\n      add\n      0x00\n      swap1\n    tag_107:\n      dup3\n      dup3\n      lt\n      iszero\n      tag_108\n      jumpi\n      dup4\n      dup3\n      swap1\n      0x00\n      mstore\n      keccak256(0x00, 0x20)\n      swap1\n      0x03\n      mul\n      add\n      mload(0x40)\n      dup1\n      0x60\n      add\n      0x40\n      mstore\n      swap1\n      dup2\n      0x00\n      dup3\n      add\n      0x00\n      swap1\n      sload\n      swap1\n      0x0100\n      exp\n      swap1\n      div\n      0xffffffffffffffffffffffffffffffffffffffff\n      and\n      0xffffffffffffffffffffffffffffffffffffffff\n      and\n      0xffffffffffffffffffffffffffffffffffffffff\n      and\n      dup2\n      mstore\n      0x20\n      add\n      0x01\n      dup3\n      add\n      dup1\n      sload\n      tag_110\n      swap1\n      tag_111\n      jump\t// in\n    tag_110:\n      dup1\n      0x1f\n      add\n      0x20\n      dup1\n      swap2\n      div\n      mul\n      0x20\n      add\n      mload(0x40)\n      swap1\n      dup2\n      add\n      0x40\n      mstore\n      dup1\n      swap3\n      swap2\n      swap1\n      dup2\n      dup2\n      mstore\n      0x20\n      add\n      dup3\n      dup1\n      sload\n      tag_112\n      swap1\n      tag_111\n      jump\t// in\n    tag_112:\n      dup1\n      iszero\n      tag_113\n      jumpi\n      dup1\n      0x1f\n      lt\n      tag_114\n      jumpi\n      0x0100\n      dup1\n      dup4\n      sload\n      div\n      mul\n      dup4\n      mstore\n      swap2\n      0x20\n      add\n      swap2\n      jump(tag_113)\n    tag_114:\n      dup3\n      add\n      swap2\n      swap1\n      0x00\n      mstore\n      keccak256(0x00, 0x20)\n      swap1\n    tag_115:\n      dup2\n      sload\n      dup2\n      mstore\n      swap1\n      0x01\n      add\n      swap1\n      0x20\n      add\n      dup1\n      dup4\n      gt\n      tag_115\n      jumpi\n      dup3\n      swap1\n      sub\n      0x1f\n      and\n      dup3\n      add\n      swap2\n    tag_113:\n      pop\n      pop\n      pop\n      pop\n      pop\n      dup2\n      mstore\n      0x20\n      add\n      0x02\n      dup3\n      add\n      sload\n      dup2\n      mstore\n      pop\n      pop\n      dup2\n      mstore\n      0x20\n      add\n      swap1\n      0x01\n      add\n      swap1\n      jump(tag_107)\n    tag_108:\n      pop\n      pop\n      pop\n      pop\n      swap1\n      pop\n        /* \"tipjar.sol\":642:739  function viewWaitress() public view returns(Waitress[] memory) {... */\n      swap1\n      jump\t// out\n        /* \"tipjar.sol\":851:1053  function _transferFunds(address payable recipient, uint amount) internal {... */\n    tag_89:\n        /* \"tipjar.sol\":936:948  bool success */\n      0x00\n        /* \"tipjar.sol\":962:971  recipient */\n      dup3\n        /* \"tipjar.sol\":954:977  payable(recipient).call */\n      0xffffffffffffffffffffffffffffffffffffffff\n      and\n        /* \"tipjar.sol\":985:991  amount */\n      dup3\n        /* \"tipjar.sol\":954:996  payable(recipient).call{value: amount}(\"\") */\n      mload(0x40)\n      tag_117\n      swap1\n      tag_118\n      jump\t// in\n    tag_117:\n      0x00\n      mload(0x40)\n      dup1\n      dup4\n      sub\n      dup2\n      dup6\n      dup8\n      gas\n      call\n      swap3\n      pop\n      pop\n      pop\n      returndatasize\n      dup1\n      0x00\n      dup2\n      eq\n      tag_121\n      jumpi\n      mload(0x40)\n      swap2\n      pop\n      and(add(returndatasize, 0x3f), not(0x1f))\n      dup3\n      add\n      0x40\n      mstore\n      returndatasize\n      dup3\n      mstore\n      returndatasize\n      0x00\n      0x20\n      dup5\n      add\n      returndatacopy\n      jump(tag_120)\n    tag_121:\n      0x60\n      swap2\n      pop\n    tag_120:\n      pop\n        /* \"tipjar.sol\":935:996  (bool success, ) = payable(recipient).call{value: amount}(\"\") */\n      pop\n      swap1\n      pop\n        /* \"tipjar.sol\":1015:1022  success */\n      dup1\n        /* \"tipjar.sol\":1007:1043  require(success, \"Transfer failed.\") */\n      tag_122\n      jumpi\n      mload(0x40)\n      0x08c379a000000000000000000000000000000000000000000000000000000000\n      dup2\n      mstore\n      0x04\n      add\n      tag_123\n      swap1\n      tag_124\n      jump\t// in\n    tag_123:\n      mload(0x40)\n      dup1\n      swap2\n      sub\n      swap1\n      revert\n    tag_122:\n        /* \"tipjar.sol\":924:1053  {... */\n      pop\n        /* \"tipjar.sol\":851:1053  function _transferFunds(address payable recipient, uint amount) internal {... */\n      pop\n      pop\n      jump\t// out\n    tag_68:\n      pop\n      dup1\n      sload\n      tag_125\n      swap1\n      tag_111\n      jump\t// in\n    tag_125:\n      0x00\n      dup3\n      sstore\n      dup1\n      0x1f\n      lt\n      tag_127\n      jumpi\n      pop\n      jump(tag_126)\n    tag_127:\n      0x1f\n      add\n      0x20\n      swap1\n      div\n      swap1\n      0x00\n      mstore\n      keccak256(0x00, 0x20)\n      swap1\n      dup2\n      add\n      swap1\n      tag_128\n      swap2\n      swap1\n      tag_129\n      jump\t// in\n    tag_128:\n    tag_126:\n      pop\n      jump\t// out\n    tag_129:\n    tag_130:\n      dup1\n      dup3\n      gt\n      iszero\n      tag_131\n      jumpi\n      0x00\n      dup2\n      0x00\n      swap1\n      sstore\n      pop\n      0x01\n      add\n      jump(tag_130)\n    tag_131:\n      pop\n      swap1\n      jump\t// out\n        /* \"#utility.yul\":7:84   */\n    tag_132:\n        /* \"#utility.yul\":44:51   */\n      0x00\n        /* \"#utility.yul\":73:78   */\n      dup2\n        /* \"#utility.yul\":62:78   */\n      swap1\n      pop\n        /* \"#utility.yul\":7:84   */\n      swap2\n      swap1\n      pop\n      jump\t// out\n        /* \"#utility.yul\":90:208   */\n    tag_133:\n        /* \"#utility.yul\":177:201   */\n      tag_201\n        /* \"#utility.yul\":195:200   */\n      dup2\n        /* \"#utility.yul\":177:201   */\n      tag_132\n      jump\t// in\n    tag_201:\n        /* \"#utility.yul\":172:175   */\n      dup3\n        /* \"#utility.yul\":165:202   */\n      mstore\n        /* \"#utility.yul\":90:208   */\n      pop\n      pop\n      jump\t// out\n        /* \"#utility.yul\":214:436   */\n    tag_12:\n        /* \"#utility.yul\":307:311   */\n      0x00\n        /* \"#utility.yul\":345:347   */\n      0x20\n        /* \"#utility.yul\":334:343   */\n      dup3\n        /* \"#utility.yul\":330:348   */\n      add\n        /* \"#utility.yul\":322:348   */\n      swap1\n      pop\n        /* \"#utility.yul\":358:429   */\n      tag_203\n        /* \"#utility.yul\":426:427   */\n      0x00\n        /* \"#utility.yul\":415:424   */\n      dup4\n        /* \"#utility.yul\":411:428   */\n      add\n        /* \"#utility.yul\":402:408   */\n      dup5\n        /* \"#utility.yul\":358:429   */\n      tag_133\n      jump\t// in\n    tag_203:\n        /* \"#utility.yul\":214:436   */\n      swap3\n      swap2\n      pop\n      pop\n      jump\t// out\n        /* \"#utility.yul\":442:517   */\n    tag_134:\n        /* \"#utility.yul\":475:481   */\n      0x00\n        /* \"#utility.yul\":508:510   */\n      0x40\n        /* \"#utility.yul\":502:511   */\n      mload\n        /* \"#utility.yul\":492:511   */\n      swap1\n      pop\n        /* \"#utility.yul\":442:517   */\n      swap1\n      jump\t// out\n        /* \"#utility.yul\":523:640   */\n    tag_135:\n        /* \"#utility.yul\":632:633   */\n      0x00\n        /* \"#utility.yul\":629:630   */\n      0x00\n        /* \"#utility.yul\":622:634   */\n      revert\n        /* \"#utility.yul\":646:763   */\n    tag_136:\n        /* \"#utility.yul\":755:756   */\n      0x00\n        /* \"#utility.yul\":752:753   */\n      0x00\n        /* \"#utility.yul\":745:757   */\n      revert\n        /* \"#utility.yul\":769:895   */\n    tag_137:\n        /* \"#utility.yul\":806:813   */\n      0x00\n        /* \"#utility.yul\":846:888   */\n      0xffffffffffffffffffffffffffffffffffffffff\n        /* \"#utility.yul\":839:844   */\n      dup3\n        /* \"#utility.yul\":835:889   */\n      and\n        /* \"#utility.yul\":824:889   */\n      swap1\n      pop\n        /* \"#utility.yul\":769:895   */\n      swap2\n      swap1\n      pop\n      jump\t// out\n        /* \"#utility.yul\":901:997   */\n    tag_138:\n        /* \"#utility.yul\":938:945   */\n      0x00\n        /* \"#utility.yul\":967:991   */\n      tag_209\n        /* \"#utility.yul\":985:990   */\n      dup3\n        /* \"#utility.yul\":967:991   */\n      tag_137\n      jump\t// in\n    tag_209:\n        /* \"#utility.yul\":956:991   */\n      swap1\n      pop\n        /* \"#utility.yul\":901:997   */\n      swap2\n      swap1\n      pop\n      jump\t// out\n        /* \"#utility.yul\":1003:1125   */\n    tag_139:\n        /* \"#utility.yul\":1076:1100   */\n      tag_211\n        /* \"#utility.yul\":1094:1099   */\n      dup2\n        /* \"#utility.yul\":1076:1100   */\n      tag_138\n      jump\t// in\n    tag_211:\n        /* \"#utility.yul\":1069:1074   */\n      dup2\n        /* \"#utility.yul\":1066:1101   */\n      eq\n        /* \"#utility.yul\":1056:1119   */\n      tag_212\n      jumpi\n        /* \"#utility.yul\":1115:1116   */\n      0x00\n        /* \"#utility.yul\":1112:1113   */\n      0x00\n        /* \"#utility.yul\":1105:1117   */\n      revert\n        /* \"#utility.yul\":1056:1119   */\n    tag_212:\n        /* \"#utility.yul\":1003:1125   */\n      pop\n      jump\t// out\n        /* \"#utility.yul\":1131:1270   */\n    tag_140:\n        /* \"#utility.yul\":1177:1182   */\n      0x00\n        /* \"#utility.yul\":1215:1221   */\n      dup2\n        /* \"#utility.yul\":1202:1222   */\n      calldataload\n        /* \"#utility.yul\":1193:1222   */\n      swap1\n      pop\n        /* \"#utility.yul\":1231:1264   */\n      tag_214\n        /* \"#utility.yul\":1258:1263   */\n      dup2\n        /* \"#utility.yul\":1231:1264   */\n      tag_139\n      jump\t// in\n    tag_214:\n        /* \"#utility.yul\":1131:1270   */\n      swap3\n      swap2\n      pop\n      pop\n      jump\t// out\n        /* \"#utility.yul\":1276:1605   */\n    tag_16:\n        /* \"#utility.yul\":1335:1341   */\n      0x00\n        /* \"#utility.yul\":1384:1386   */\n      0x20\n        /* \"#utility.yul\":1372:1381   */\n      dup3\n        /* \"#utility.yul\":1363:1370   */\n      dup5\n        /* \"#utility.yul\":1359:1382   */\n      sub\n        /* \"#utility.yul\":1355:1387   */\n      slt\n        /* \"#utility.yul\":1352:1471   */\n      iszero\n      tag_216\n      jumpi\n        /* \"#utility.yul\":1390:1469   */\n      tag_217\n      tag_135\n      jump\t// in\n    tag_217:\n        /* \"#utility.yul\":1352:1471   */\n    tag_216:\n        /* \"#utility.yul\":1510:1511   */\n      0x00\n        /* \"#utility.yul\":1535:1588   */\n      tag_218\n        /* \"#utility.yul\":1580:1587   */\n      dup5\n        /* \"#utility.yul\":1571:1577   */\n      dup3\n        /* \"#utility.yul\":1560:1569   */\n      dup6\n        /* \"#utility.yul\":1556:1578   */\n      add\n        /* \"#utility.yul\":1535:1588   */\n      tag_140\n      jump\t// in\n    tag_218:\n        /* \"#utility.yul\":1525:1588   */\n      swap2\n      pop\n        /* \"#utility.yul\":1481:1598   */\n      pop\n        /* \"#utility.yul\":1276:1605   */\n      swap3\n      swap2\n      pop\n      pop\n      jump\t// out\n        /* \"#utility.yul\":1611:1715   */\n    tag_141:\n        /* \"#utility.yul\":1656:1663   */\n      0x00\n        /* \"#utility.yul\":1685:1709   */\n      tag_220\n        /* \"#utility.yul\":1703:1708   */\n      dup3\n        /* \"#utility.yul\":1685:1709   */\n      tag_137\n      jump\t// in\n    tag_220:\n        /* \"#utility.yul\":1674:1709   */\n      swap1\n      pop\n        /* \"#utility.yul\":1611:1715   */\n      swap2\n      swap1\n      pop\n      jump\t// out\n        /* \"#utility.yul\":1721:1859   */\n    tag_142:\n        /* \"#utility.yul\":1802:1834   */\n      tag_222\n        /* \"#utility.yul\":1828:1833   */\n      dup2\n        /* \"#utility.yul\":1802:1834   */\n      tag_141\n      jump\t// in\n    tag_222:\n        /* \"#utility.yul\":1795:1800   */\n      dup2\n        /* \"#utility.yul\":1792:1835   */\n      eq\n        /* \"#utility.yul\":1782:1853   */\n      tag_223\n      jumpi\n        /* \"#utility.yul\":1849:1850   */\n      0x00\n        /* \"#utility.yul\":1846:1847   */\n      0x00\n        /* \"#utility.yul\":1839:1851   */\n      revert\n        /* \"#utility.yul\":1782:1853   */\n    tag_223:\n        /* \"#utility.yul\":1721:1859   */\n      pop\n      jump\t// out\n        /* \"#utility.yul\":1865:2020   */\n    tag_143:\n        /* \"#utility.yul\":1919:1924   */\n      0x00\n        /* \"#utility.yul\":1957:1963   */\n      dup2\n        /* \"#utility.yul\":1944:1964   */\n      calldataload\n        /* \"#utility.yul\":1935:1964   */\n      swap1\n      pop\n        /* \"#utility.yul\":1973:2014   */\n      tag_225\n        /* \"#utility.yul\":2008:2013   */\n      dup2\n        /* \"#utility.yul\":1973:2014   */\n      tag_142\n      jump\t// in\n    tag_225:\n        /* \"#utility.yul\":1865:2020   */\n      swap3\n      swap2\n      pop\n      pop\n      jump\t// out\n        /* \"#utility.yul\":2026:2143   */\n    tag_144:\n        /* \"#utility.yul\":2135:2136   */\n      0x00\n        /* \"#utility.yul\":2132:2133   */\n      0x00\n        /* \"#utility.yul\":2125:2137   */\n      revert\n        /* \"#utility.yul\":2149:2266   */\n    tag_145:\n        /* \"#utility.yul\":2258:2259   */\n      0x00\n        /* \"#utility.yul\":2255:2256   */\n      0x00\n        /* \"#utility.yul\":2248:2260   */\n      revert\n        /* \"#utility.yul\":2272:2374   */\n    tag_146:\n        /* \"#utility.yul\":2313:2319   */\n      0x00\n        /* \"#utility.yul\":2364:2366   */\n      0x1f\n        /* \"#utility.yul\":2360:2367   */\n      not\n        /* \"#utility.yul\":2355:2357   */\n      0x1f\n        /* \"#utility.yul\":2348:2353   */\n      dup4\n        /* \"#utility.yul\":2344:2358   */\n      add\n        /* \"#utility.yul\":2340:2368   */\n      and\n        /* \"#utility.yul\":2330:2368   */\n      swap1\n      pop\n        /* \"#utility.yul\":2272:2374   */\n      swap2\n      swap1\n      pop\n      jump\t// out\n        /* \"#utility.yul\":2380:2560   */\n    tag_147:\n        /* \"#utility.yul\":2428:2505   */\n      0x4e487b7100000000000000000000000000000000000000000000000000000000\n        /* \"#utility.yul\":2425:2426   */\n      0x00\n        /* \"#utility.yul\":2418:2506   */\n      mstore\n        /* \"#utility.yul\":2525:2529   */\n      0x41\n        /* \"#utility.yul\":2522:2523   */\n      0x04\n        /* \"#utility.yul\":2515:2530   */\n      mstore\n        /* \"#utility.yul\":2549:2553   */\n      0x24\n        /* \"#utility.yul\":2546:2547   */\n      0x00\n        /* \"#utility.yul\":2539:2554   */\n      revert\n        /* \"#utility.yul\":2566:2847   */\n    tag_148:\n        /* \"#utility.yul\":2649:2676   */\n      tag_231\n        /* \"#utility.yul\":2671:2675   */\n      dup3\n        /* \"#utility.yul\":2649:2676   */\n      tag_146\n      jump\t// in\n    tag_231:\n        /* \"#utility.yul\":2641:2647   */\n      dup2\n        /* \"#utility.yul\":2637:2677   */\n      add\n        /* \"#utility.yul\":2779:2785   */\n      dup2\n        /* \"#utility.yul\":2767:2777   */\n      dup2\n        /* \"#utility.yul\":2764:2786   */\n      lt\n        /* \"#utility.yul\":2743:2761   */\n      0xffffffffffffffff\n        /* \"#utility.yul\":2731:2741   */\n      dup3\n        /* \"#utility.yul\":2728:2762   */\n      gt\n        /* \"#utility.yul\":2725:2787   */\n      or\n        /* \"#utility.yul\":2722:2810   */\n      iszero\n      tag_232\n      jumpi\n        /* \"#utility.yul\":2790:2808   */\n      tag_233\n      tag_147\n      jump\t// in\n    tag_233:\n        /* \"#utility.yul\":2722:2810   */\n    tag_232:\n        /* \"#utility.yul\":2830:2840   */\n      dup1\n        /* \"#utility.yul\":2826:2828   */\n      0x40\n        /* \"#utility.yul\":2819:2841   */\n      mstore\n        /* \"#utility.yul\":2609:2847   */\n      pop\n        /* \"#utility.yul\":2566:2847   */\n      pop\n      pop\n      jump\t// out\n        /* \"#utility.yul\":2853:2982   */\n    tag_149:\n        /* \"#utility.yul\":2887:2893   */\n      0x00\n        /* \"#utility.yul\":2914:2934   */\n      tag_235\n      tag_134\n      jump\t// in\n    tag_235:\n        /* \"#utility.yul\":2904:2934   */\n      swap1\n      pop\n        /* \"#utility.yul\":2943:2976   */\n      tag_236\n        /* \"#utility.yul\":2971:2975   */\n      dup3\n        /* \"#utility.yul\":2963:2969   */\n      dup3\n        /* \"#utility.yul\":2943:2976   */\n      tag_148\n      jump\t// in\n    tag_236:\n        /* \"#utility.yul\":2853:2982   */\n      swap2\n      swap1\n      pop\n      jump\t// out\n        /* \"#utility.yul\":2988:3296   */\n    tag_150:\n        /* \"#utility.yul\":3050:3054   */\n      0x00\n        /* \"#utility.yul\":3140:3158   */\n      0xffffffffffffffff\n        /* \"#utility.yul\":3132:3138   */\n      dup3\n        /* \"#utility.yul\":3129:3159   */\n      gt\n        /* \"#utility.yul\":3126:3182   */\n      iszero\n      tag_238\n      jumpi\n        /* \"#utility.yul\":3162:3180   */\n      tag_239\n      tag_147\n      jump\t// in\n    tag_239:\n        /* \"#utility.yul\":3126:3182   */\n    tag_238:\n        /* \"#utility.yul\":3200:3229   */\n      tag_240\n        /* \"#utility.yul\":3222:3228   */\n      dup3\n        /* \"#utility.yul\":3200:3229   */\n      tag_146\n      jump\t// in\n    tag_240:\n        /* \"#utility.yul\":3192:3229   */\n      swap1\n      pop\n        /* \"#utility.yul\":3284:3288   */\n      0x20\n        /* \"#utility.yul\":3278:3282   */\n      dup2\n        /* \"#utility.yul\":3274:3289   */\n      add\n        /* \"#utility.yul\":3266:3289   */\n      swap1\n      pop\n        /* \"#utility.yul\":2988:3296   */\n      swap2\n      swap1\n      pop\n      jump\t// out\n        /* \"#utility.yul\":3302:3450   */\n    tag_151:\n        /* \"#utility.yul\":3400:3406   */\n      dup3\n        /* \"#utility.yul\":3395:3398   */\n      dup2\n        /* \"#utility.yul\":3390:3393   */\n      dup4\n        /* \"#utility.yul\":3377:3407   */\n      calldatacopy\n        /* \"#utility.yul\":3441:3442   */\n      0x00\n        /* \"#utility.yul\":3432:3438   */\n      dup4\n        /* \"#utility.yul\":3427:3430   */\n      dup4\n        /* \"#utility.yul\":3423:3439   */\n      add\n        /* \"#utility.yul\":3416:3443   */\n      mstore\n        /* \"#utility.yul\":3302:3450   */\n      pop\n      pop\n      pop\n      jump\t// out\n        /* \"#utility.yul\":3456:3881   */\n    tag_152:\n        /* \"#utility.yul\":3534:3539   */\n      0x00\n        /* \"#utility.yul\":3559:3625   */\n      tag_243\n        /* \"#utility.yul\":3575:3624   */\n      tag_244\n        /* \"#utility.yul\":3617:3623   */\n      dup5\n        /* \"#utility.yul\":3575:3624   */\n      tag_150\n      jump\t// in\n    tag_244:\n        /* \"#utility.yul\":3559:3625   */\n      tag_149\n      jump\t// in\n    tag_243:\n        /* \"#utility.yul\":3550:3625   */\n      swap1\n      pop\n        /* \"#utility.yul\":3648:3654   */\n      dup3\n        /* \"#utility.yul\":3641:3646   */\n      dup2\n        /* \"#utility.yul\":3634:3655   */\n      mstore\n        /* \"#utility.yul\":3686:3690   */\n      0x20\n        /* \"#utility.yul\":3679:3684   */\n      dup2\n        /* \"#utility.yul\":3675:3691   */\n      add\n        /* \"#utility.yul\":3724:3727   */\n      dup5\n        /* \"#utility.yul\":3715:3721   */\n      dup5\n        /* \"#utility.yul\":3710:3713   */\n      dup5\n        /* \"#utility.yul\":3706:3722   */\n      add\n        /* \"#utility.yul\":3703:3728   */\n      gt\n        /* \"#utility.yul\":3700:3812   */\n      iszero\n      tag_245\n      jumpi\n        /* \"#utility.yul\":3731:3810   */\n      tag_246\n      tag_145\n      jump\t// in\n    tag_246:\n        /* \"#utility.yul\":3700:3812   */\n    tag_245:\n        /* \"#utility.yul\":3821:3875   */\n      tag_247\n        /* \"#utility.yul\":3868:3874   */\n      dup5\n        /* \"#utility.yul\":3863:3866   */\n      dup3\n        /* \"#utility.yul\":3858:3861   */\n      dup6\n        /* \"#utility.yul\":3821:3875   */\n      tag_151\n      jump\t// in\n    tag_247:\n        /* \"#utility.yul\":3540:3881   */\n      pop\n        /* \"#utility.yul\":3456:3881   */\n      swap4\n      swap3\n      pop\n      pop\n      pop\n      jump\t// out\n        /* \"#utility.yul\":3901:4241   */\n    tag_153:\n        /* \"#utility.yul\":3957:3962   */\n      0x00\n        /* \"#utility.yul\":4006:4009   */\n      dup3\n        /* \"#utility.yul\":3999:4003   */\n      0x1f\n        /* \"#utility.yul\":3991:3997   */\n      dup4\n        /* \"#utility.yul\":3987:4004   */\n      add\n        /* \"#utility.yul\":3983:4010   */\n      slt\n        /* \"#utility.yul\":3973:4095   */\n      tag_249\n      jumpi\n        /* \"#utility.yul\":4014:4093   */\n      tag_250\n      tag_144\n      jump\t// in\n    tag_250:\n        /* \"#utility.yul\":3973:4095   */\n    tag_249:\n        /* \"#utility.yul\":4131:4137   */\n      dup2\n        /* \"#utility.yul\":4118:4138   */\n      calldataload\n        /* \"#utility.yul\":4156:4235   */\n      tag_251\n        /* \"#utility.yul\":4231:4234   */\n      dup5\n        /* \"#utility.yul\":4223:4229   */\n      dup3\n        /* \"#utility.yul\":4216:4220   */\n      0x20\n        /* \"#utility.yul\":4208:4214   */\n      dup7\n        /* \"#utility.yul\":4204:4221   */\n      add\n        /* \"#utility.yul\":4156:4235   */\n      tag_152\n      jump\t// in\n    tag_251:\n        /* \"#utility.yul\":4147:4235   */\n      swap2\n      pop\n        /* \"#utility.yul\":3963:4241   */\n      pop\n        /* \"#utility.yul\":3901:4241   */\n      swap3\n      swap2\n      pop\n      pop\n      jump\t// out\n        /* \"#utility.yul\":4247:4369   */\n    tag_154:\n        /* \"#utility.yul\":4320:4344   */\n      tag_253\n        /* \"#utility.yul\":4338:4343   */\n      dup2\n        /* \"#utility.yul\":4320:4344   */\n      tag_132\n      jump\t// in\n    tag_253:\n        /* \"#utility.yul\":4313:4318   */\n      dup2\n        /* \"#utility.yul\":4310:4345   */\n      eq\n        /* \"#utility.yul\":4300:4363   */\n      tag_254\n      jumpi\n        /* \"#utility.yul\":4359:4360   */\n      0x00\n        /* \"#utility.yul\":4356:4357   */\n      0x00\n        /* \"#utility.yul\":4349:4361   */\n      revert\n        /* \"#utility.yul\":4300:4363   */\n    tag_254:\n        /* \"#utility.yul\":4247:4369   */\n      pop\n      jump\t// out\n        /* \"#utility.yul\":4375:4514   */\n    tag_155:\n        /* \"#utility.yul\":4421:4426   */\n      0x00\n        /* \"#utility.yul\":4459:4465   */\n      dup2\n        /* \"#utility.yul\":4446:4466   */\n      calldataload\n        /* \"#utility.yul\":4437:4466   */\n      swap1\n      pop\n        /* \"#utility.yul\":4475:4508   */\n      tag_256\n        /* \"#utility.yul\":4502:4507   */\n      dup2\n        /* \"#utility.yul\":4475:4508   */\n      tag_154\n      jump\t// in\n    tag_256:\n        /* \"#utility.yul\":4375:4514   */\n      swap3\n      swap2\n      pop\n      pop\n      jump\t// out\n        /* \"#utility.yul\":4520:5335   */\n    tag_26:\n        /* \"#utility.yul\":4615:4621   */\n      0x00\n        /* \"#utility.yul\":4623:4629   */\n      0x00\n        /* \"#utility.yul\":4631:4637   */\n      0x00\n        /* \"#utility.yul\":4680:4682   */\n      0x60\n        /* \"#utility.yul\":4668:4677   */\n      dup5\n        /* \"#utility.yul\":4659:4666   */\n      dup7\n        /* \"#utility.yul\":4655:4678   */\n      sub\n        /* \"#utility.yul\":4651:4683   */\n      slt\n        /* \"#utility.yul\":4648:4767   */\n      iszero\n      tag_258\n      jumpi\n        /* \"#utility.yul\":4686:4765   */\n      tag_259\n      tag_135\n      jump\t// in\n    tag_259:\n        /* \"#utility.yul\":4648:4767   */\n    tag_258:\n        /* \"#utility.yul\":4806:4807   */\n      0x00\n        /* \"#utility.yul\":4831:4892   */\n      tag_260\n        /* \"#utility.yul\":4884:4891   */\n      dup7\n        /* \"#utility.yul\":4875:4881   */\n      dup3\n        /* \"#utility.yul\":4864:4873   */\n      dup8\n        /* \"#utility.yul\":4860:4882   */\n      add\n        /* \"#utility.yul\":4831:4892   */\n      tag_143\n      jump\t// in\n    tag_260:\n        /* \"#utility.yul\":4821:4892   */\n      swap4\n      pop\n        /* \"#utility.yul\":4777:4902   */\n      pop\n        /* \"#utility.yul\":4969:4971   */\n      0x20\n        /* \"#utility.yul\":4958:4967   */\n      dup5\n        /* \"#utility.yul\":4954:4972   */\n      add\n        /* \"#utility.yul\":4941:4973   */\n      calldataload\n        /* \"#utility.yul\":5000:5018   */\n      0xffffffffffffffff\n        /* \"#utility.yul\":4992:4998   */\n      dup2\n        /* \"#utility.yul\":4989:5019   */\n      gt\n        /* \"#utility.yul\":4986:5103   */\n      iszero\n      tag_261\n      jumpi\n        /* \"#utility.yul\":5022:5101   */\n      tag_262\n      tag_136\n      jump\t// in\n    tag_262:\n        /* \"#utility.yul\":4986:5103   */\n    tag_261:\n        /* \"#utility.yul\":5127:5190   */\n      tag_263\n        /* \"#utility.yul\":5182:5189   */\n      dup7\n        /* \"#utility.yul\":5173:5179   */\n      dup3\n        /* \"#utility.yul\":5162:5171   */\n      dup8\n        /* \"#utility.yul\":5158:5180   */\n      add\n        /* \"#utility.yul\":5127:5190   */\n      tag_153\n      jump\t// in\n    tag_263:\n        /* \"#utility.yul\":5117:5190   */\n      swap3\n      pop\n        /* \"#utility.yul\":4912:5200   */\n      pop\n        /* \"#utility.yul\":5239:5241   */\n      0x40\n        /* \"#utility.yul\":5265:5318   */\n      tag_264\n        /* \"#utility.yul\":5310:5317   */\n      dup7\n        /* \"#utility.yul\":5301:5307   */\n      dup3\n        /* \"#utility.yul\":5290:5299   */\n      dup8\n        /* \"#utility.yul\":5286:5308   */\n      add\n        /* \"#utility.yul\":5265:5318   */\n      tag_155\n      jump\t// in\n    tag_264:\n        /* \"#utility.yul\":5255:5318   */\n      swap2\n      pop\n        /* \"#utility.yul\":5210:5328   */\n      pop\n        /* \"#utility.yul\":4520:5335   */\n      swap3\n      pop\n      swap3\n      pop\n      swap3\n      jump\t// out\n        /* \"#utility.yul\":5341:5479   */\n    tag_156:\n        /* \"#utility.yul\":5432:5438   */\n      0x00\n        /* \"#utility.yul\":5466:5471   */\n      dup2\n        /* \"#utility.yul\":5460:5472   */\n      mload\n        /* \"#utility.yul\":5450:5472   */\n      swap1\n      pop\n        /* \"#utility.yul\":5341:5479   */\n      swap2\n      swap1\n      pop\n      jump\t// out\n        /* \"#utility.yul\":5485:5693   */\n    tag_157:\n        /* \"#utility.yul\":5608:5619   */\n      0x00\n        /* \"#utility.yul\":5642:5648   */\n      dup3\n        /* \"#utility.yul\":5637:5640   */\n      dup3\n        /* \"#utility.yul\":5630:5649   */\n      mstore\n        /* \"#utility.yul\":5682:5686   */\n      0x20\n        /* \"#utility.yul\":5677:5680   */\n      dup3\n        /* \"#utility.yul\":5673:5687   */\n      add\n        /* \"#utility.yul\":5658:5687   */\n      swap1\n      pop\n        /* \"#utility.yul\":5485:5693   */\n      swap3\n      swap2\n      pop\n      pop\n      jump\t// out\n        /* \"#utility.yul\":5699:5855   */\n    tag_158:\n        /* \"#utility.yul\":5790:5794   */\n      0x00\n        /* \"#utility.yul\":5813:5816   */\n      dup2\n        /* \"#utility.yul\":5805:5816   */\n      swap1\n      pop\n        /* \"#utility.yul\":5843:5847   */\n      0x20\n        /* \"#utility.yul\":5838:5841   */\n      dup3\n        /* \"#utility.yul\":5834:5848   */\n      add\n        /* \"#utility.yul\":5826:5848   */\n      swap1\n      pop\n        /* \"#utility.yul\":5699:5855   */\n      swap2\n      swap1\n      pop\n      jump\t// out\n        /* \"#utility.yul\":5861:5993   */\n    tag_159:\n        /* \"#utility.yul\":5954:5986   */\n      tag_269\n        /* \"#utility.yul\":5980:5985   */\n      dup2\n        /* \"#utility.yul\":5954:5986   */\n      tag_141\n      jump\t// in\n    tag_269:\n        /* \"#utility.yul\":5949:5952   */\n      dup3\n        /* \"#utility.yul\":5942:5987   */\n      mstore\n        /* \"#utility.yul\":5861:5993   */\n      pop\n      pop\n      jump\t// out\n        /* \"#utility.yul\":5999:6098   */\n    tag_160:\n        /* \"#utility.yul\":6051:6057   */\n      0x00\n        /* \"#utility.yul\":6085:6090   */\n      dup2\n        /* \"#utility.yul\":6079:6091   */\n      mload\n        /* \"#utility.yul\":6069:6091   */\n      swap1\n      pop\n        /* \"#utility.yul\":5999:6098   */\n      swap2\n      swap1\n      pop\n      jump\t// out\n        /* \"#utility.yul\":6104:6263   */\n    tag_161:\n        /* \"#utility.yul\":6178:6189   */\n      0x00\n        /* \"#utility.yul\":6212:6218   */\n      dup3\n        /* \"#utility.yul\":6207:6210   */\n      dup3\n        /* \"#utility.yul\":6200:6219   */\n      mstore\n        /* \"#utility.yul\":6252:6256   */\n      0x20\n        /* \"#utility.yul\":6247:6250   */\n      dup3\n        /* \"#utility.yul\":6243:6257   */\n      add\n        /* \"#utility.yul\":6228:6257   */\n      swap1\n      pop\n        /* \"#utility.yul\":6104:6263   */\n      swap3\n      swap2\n      pop\n      pop\n      jump\t// out\n        /* \"#utility.yul\":6269:6408   */\n    tag_162:\n        /* \"#utility.yul\":6358:6364   */\n      dup3\n        /* \"#utility.yul\":6353:6356   */\n      dup2\n        /* \"#utility.yul\":6348:6351   */\n      dup4\n        /* \"#utility.yul\":6342:6365   */\n      mcopy\n        /* \"#utility.yul\":6399:6400   */\n      0x00\n        /* \"#utility.yul\":6390:6396   */\n      dup4\n        /* \"#utility.yul\":6385:6388   */\n      dup4\n        /* \"#utility.yul\":6381:6397   */\n      add\n        /* \"#utility.yul\":6374:6401   */\n      mstore\n        /* \"#utility.yul\":6269:6408   */\n      pop\n      pop\n      pop\n      jump\t// out\n        /* \"#utility.yul\":6414:6771   */\n    tag_163:\n        /* \"#utility.yul\":6492:6495   */\n      0x00\n        /* \"#utility.yul\":6520:6559   */\n      tag_274\n        /* \"#utility.yul\":6553:6558   */\n      dup3\n        /* \"#utility.yul\":6520:6559   */\n      tag_160\n      jump\t// in\n    tag_274:\n        /* \"#utility.yul\":6575:6636   */\n      tag_275\n        /* \"#utility.yul\":6629:6635   */\n      dup2\n        /* \"#utility.yul\":6624:6627   */\n      dup6\n        /* \"#utility.yul\":6575:6636   */\n      tag_161\n      jump\t// in\n    tag_275:\n        /* \"#utility.yul\":6568:6636   */\n      swap4\n      pop\n        /* \"#utility.yul\":6645:6710   */\n      tag_276\n        /* \"#utility.yul\":6703:6709   */\n      dup2\n        /* \"#utility.yul\":6698:6701   */\n      dup6\n        /* \"#utility.yul\":6691:6695   */\n      0x20\n        /* \"#utility.yul\":6684:6689   */\n      dup7\n        /* \"#utility.yul\":6680:6696   */\n      add\n        /* \"#utility.yul\":6645:6710   */\n      tag_162\n      jump\t// in\n    tag_276:\n        /* \"#utility.yul\":6735:6764   */\n      tag_277\n        /* \"#utility.yul\":6757:6763   */\n      dup2\n        /* \"#utility.yul\":6735:6764   */\n      tag_146\n      jump\t// in\n    tag_277:\n        /* \"#utility.yul\":6730:6733   */\n      dup5\n        /* \"#utility.yul\":6726:6765   */\n      add\n        /* \"#utility.yul\":6719:6765   */\n      swap2\n      pop\n        /* \"#utility.yul\":6496:6771   */\n      pop\n        /* \"#utility.yul\":6414:6771   */\n      swap3\n      swap2\n      pop\n      pop\n      jump\t// out\n        /* \"#utility.yul\":6777:6885   */\n    tag_164:\n        /* \"#utility.yul\":6854:6878   */\n      tag_279\n        /* \"#utility.yul\":6872:6877   */\n      dup2\n        /* \"#utility.yul\":6854:6878   */\n      tag_132\n      jump\t// in\n    tag_279:\n        /* \"#utility.yul\":6849:6852   */\n      dup3\n        /* \"#utility.yul\":6842:6879   */\n      mstore\n        /* \"#utility.yul\":6777:6885   */\n      pop\n      pop\n      jump\t// out\n        /* \"#utility.yul\":6943:7739   */\n    tag_165:\n        /* \"#utility.yul\":7050:7053   */\n      0x00\n        /* \"#utility.yul\":7086:7090   */\n      0x60\n        /* \"#utility.yul\":7081:7084   */\n      dup4\n        /* \"#utility.yul\":7077:7091   */\n      add\n        /* \"#utility.yul\":7182:7186   */\n      0x00\n        /* \"#utility.yul\":7175:7180   */\n      dup4\n        /* \"#utility.yul\":7171:7187   */\n      add\n        /* \"#utility.yul\":7165:7188   */\n      mload\n        /* \"#utility.yul\":7201:7280   */\n      tag_281\n        /* \"#utility.yul\":7274:7278   */\n      0x00\n        /* \"#utility.yul\":7269:7272   */\n      dup7\n        /* \"#utility.yul\":7265:7279   */\n      add\n        /* \"#utility.yul\":7251:7263   */\n      dup3\n        /* \"#utility.yul\":7201:7280   */\n      tag_159\n      jump\t// in\n    tag_281:\n        /* \"#utility.yul\":7101:7290   */\n      pop\n        /* \"#utility.yul\":7372:7376   */\n      0x20\n        /* \"#utility.yul\":7365:7370   */\n      dup4\n        /* \"#utility.yul\":7361:7377   */\n      add\n        /* \"#utility.yul\":7355:7378   */\n      mload\n        /* \"#utility.yul\":7425:7428   */\n      dup5\n        /* \"#utility.yul\":7419:7423   */\n      dup3\n        /* \"#utility.yul\":7415:7429   */\n      sub\n        /* \"#utility.yul\":7408:7412   */\n      0x20\n        /* \"#utility.yul\":7403:7406   */\n      dup7\n        /* \"#utility.yul\":7399:7413   */\n      add\n        /* \"#utility.yul\":7392:7430   */\n      mstore\n        /* \"#utility.yul\":7451:7524   */\n      tag_282\n        /* \"#utility.yul\":7519:7523   */\n      dup3\n        /* \"#utility.yul\":7505:7517   */\n      dup3\n        /* \"#utility.yul\":7451:7524   */\n      tag_163\n      jump\t// in\n    tag_282:\n        /* \"#utility.yul\":7443:7524   */\n      swap2\n      pop\n        /* \"#utility.yul\":7300:7535   */\n      pop\n        /* \"#utility.yul\":7620:7624   */\n      0x40\n        /* \"#utility.yul\":7613:7618   */\n      dup4\n        /* \"#utility.yul\":7609:7625   */\n      add\n        /* \"#utility.yul\":7603:7626   */\n      mload\n        /* \"#utility.yul\":7639:7702   */\n      tag_283\n        /* \"#utility.yul\":7696:7700   */\n      0x40\n        /* \"#utility.yul\":7691:7694   */\n      dup7\n        /* \"#utility.yul\":7687:7701   */\n      add\n        /* \"#utility.yul\":7673:7685   */\n      dup3\n        /* \"#utility.yul\":7639:7702   */\n      tag_164\n      jump\t// in\n    tag_283:\n        /* \"#utility.yul\":7545:7712   */\n      pop\n        /* \"#utility.yul\":7729:7733   */\n      dup1\n        /* \"#utility.yul\":7722:7733   */\n      swap2\n      pop\n        /* \"#utility.yul\":7055:7739   */\n      pop\n        /* \"#utility.yul\":6943:7739   */\n      swap3\n      swap2\n      pop\n      pop\n      jump\t// out\n        /* \"#utility.yul\":7745:7997   */\n    tag_166:\n        /* \"#utility.yul\":7862:7872   */\n      0x00\n        /* \"#utility.yul\":7897:7991   */\n      tag_285\n        /* \"#utility.yul\":7987:7990   */\n      dup4\n        /* \"#utility.yul\":7979:7985   */\n      dup4\n        /* \"#utility.yul\":7897:7991   */\n      tag_165\n      jump\t// in\n    tag_285:\n        /* \"#utility.yul\":7883:7991   */\n      swap1\n      pop\n        /* \"#utility.yul\":7745:7997   */\n      swap3\n      swap2\n      pop\n      pop\n      jump\t// out\n        /* \"#utility.yul\":8003:8140   */\n    tag_167:\n        /* \"#utility.yul\":8097:8101   */\n      0x00\n        /* \"#utility.yul\":8129:8133   */\n      0x20\n        /* \"#utility.yul\":8124:8127   */\n      dup3\n        /* \"#utility.yul\":8120:8134   */\n      add\n        /* \"#utility.yul\":8112:8134   */\n      swap1\n      pop\n        /* \"#utility.yul\":8003:8140   */\n      swap2\n      swap1\n      pop\n      jump\t// out\n        /* \"#utility.yul\":8202:9305   */\n    tag_168:\n        /* \"#utility.yul\":8369:8372   */\n      0x00\n        /* \"#utility.yul\":8398:8476   */\n      tag_288\n        /* \"#utility.yul\":8470:8475   */\n      dup3\n        /* \"#utility.yul\":8398:8476   */\n      tag_156\n      jump\t// in\n    tag_288:\n        /* \"#utility.yul\":8492:8602   */\n      tag_289\n        /* \"#utility.yul\":8595:8601   */\n      dup2\n        /* \"#utility.yul\":8590:8593   */\n      dup6\n        /* \"#utility.yul\":8492:8602   */\n      tag_157\n      jump\t// in\n    tag_289:\n        /* \"#utility.yul\":8485:8602   */\n      swap4\n      pop\n        /* \"#utility.yul\":8628:8631   */\n      dup4\n        /* \"#utility.yul\":8673:8677   */\n      0x20\n        /* \"#utility.yul\":8665:8671   */\n      dup3\n        /* \"#utility.yul\":8661:8678   */\n      mul\n        /* \"#utility.yul\":8656:8659   */\n      dup6\n        /* \"#utility.yul\":8652:8679   */\n      add\n        /* \"#utility.yul\":8703:8783   */\n      tag_290\n        /* \"#utility.yul\":8777:8782   */\n      dup6\n        /* \"#utility.yul\":8703:8783   */\n      tag_158\n      jump\t// in\n    tag_290:\n        /* \"#utility.yul\":8806:8813   */\n      dup1\n        /* \"#utility.yul\":8837:8838   */\n      0x00\n        /* \"#utility.yul\":8822:9260   */\n    tag_291:\n        /* \"#utility.yul\":8847:8853   */\n      dup6\n        /* \"#utility.yul\":8844:8845   */\n      dup2\n        /* \"#utility.yul\":8841:8854   */\n      lt\n        /* \"#utility.yul\":8822:9260   */\n      iszero\n      tag_293\n      jumpi\n        /* \"#utility.yul\":8918:8927   */\n      dup5\n        /* \"#utility.yul\":8912:8916   */\n      dup5\n        /* \"#utility.yul\":8908:8928   */\n      sub\n        /* \"#utility.yul\":8903:8906   */\n      dup10\n        /* \"#utility.yul\":8896:8929   */\n      mstore\n        /* \"#utility.yul\":8969:8975   */\n      dup2\n        /* \"#utility.yul\":8963:8976   */\n      mload\n        /* \"#utility.yul\":8997:9109   */\n      tag_294\n        /* \"#utility.yul\":9104:9108   */\n      dup6\n        /* \"#utility.yul\":9089:9102   */\n      dup3\n        /* \"#utility.yul\":8997:9109   */\n      tag_166\n      jump\t// in\n    tag_294:\n        /* \"#utility.yul\":8989:9109   */\n      swap5\n      pop\n        /* \"#utility.yul\":9132:9216   */\n      tag_295\n        /* \"#utility.yul\":9209:9215   */\n      dup4\n        /* \"#utility.yul\":9132:9216   */\n      tag_167\n      jump\t// in\n    tag_295:\n        /* \"#utility.yul\":9122:9216   */\n      swap3\n      pop\n        /* \"#utility.yul\":9245:9249   */\n      0x20\n        /* \"#utility.yul\":9240:9243   */\n      dup11\n        /* \"#utility.yul\":9236:9250   */\n      add\n        /* \"#utility.yul\":9229:9250   */\n      swap10\n      pop\n        /* \"#utility.yul\":8882:9260   */\n      pop\n        /* \"#utility.yul\":8869:8870   */\n      0x01\n        /* \"#utility.yul\":8866:8867   */\n      dup2\n        /* \"#utility.yul\":8862:8871   */\n      add\n        /* \"#utility.yul\":8857:8871   */\n      swap1\n      pop\n        /* \"#utility.yul\":8822:9260   */\n      jump(tag_291)\n    tag_293:\n        /* \"#utility.yul\":8826:8840   */\n      pop\n        /* \"#utility.yul\":9276:9280   */\n      dup3\n        /* \"#utility.yul\":9269:9280   */\n      swap8\n      pop\n        /* \"#utility.yul\":9296:9299   */\n      dup8\n        /* \"#utility.yul\":9289:9299   */\n      swap6\n      pop\n        /* \"#utility.yul\":8374:9305   */\n      pop\n      pop\n      pop\n      pop\n      pop\n        /* \"#utility.yul\":8202:9305   */\n      swap3\n      swap2\n      pop\n      pop\n      jump\t// out\n        /* \"#utility.yul\":9311:9780   */\n    tag_32:\n        /* \"#utility.yul\":9502:9506   */\n      0x00\n        /* \"#utility.yul\":9540:9542   */\n      0x20\n        /* \"#utility.yul\":9529:9538   */\n      dup3\n        /* \"#utility.yul\":9525:9543   */\n      add\n        /* \"#utility.yul\":9517:9543   */\n      swap1\n      pop\n        /* \"#utility.yul\":9589:9598   */\n      dup2\n        /* \"#utility.yul\":9583:9587   */\n      dup2\n        /* \"#utility.yul\":9579:9599   */\n      sub\n        /* \"#utility.yul\":9575:9576   */\n      0x00\n        /* \"#utility.yul\":9564:9573   */\n      dup4\n        /* \"#utility.yul\":9560:9577   */\n      add\n        /* \"#utility.yul\":9553:9600   */\n      mstore\n        /* \"#utility.yul\":9617:9773   */\n      tag_297\n        /* \"#utility.yul\":9768:9772   */\n      dup2\n        /* \"#utility.yul\":9759:9765   */\n      dup5\n        /* \"#utility.yul\":9617:9773   */\n      tag_168\n      jump\t// in\n    tag_297:\n        /* \"#utility.yul\":9609:9773   */\n      swap1\n      pop\n        /* \"#utility.yul\":9311:9780   */\n      swap3\n      swap2\n      pop\n      pop\n      jump\t// out\n        /* \"#utility.yul\":9786:9955   */\n    tag_169:\n        /* \"#utility.yul\":9870:9881   */\n      0x00\n        /* \"#utility.yul\":9904:9910   */\n      dup3\n        /* \"#utility.yul\":9899:9902   */\n      dup3\n        /* \"#utility.yul\":9892:9911   */\n      mstore\n        /* \"#utility.yul\":9944:9948   */\n      0x20\n        /* \"#utility.yul\":9939:9942   */\n      dup3\n        /* \"#utility.yul\":9935:9949   */\n      add\n        /* \"#utility.yul\":9920:9949   */\n      swap1\n      pop\n        /* \"#utility.yul\":9786:9955   */\n      swap3\n      swap2\n      pop\n      pop\n      jump\t// out\n        /* \"#utility.yul\":9961:10130   */\n    tag_170:\n        /* \"#utility.yul\":10101:10122   */\n      0x4f6e6c79206f776e65722063616e2063616c6c00000000000000000000000000\n        /* \"#utility.yul\":10097:10098   */\n      0x00\n        /* \"#utility.yul\":10089:10095   */\n      dup3\n        /* \"#utility.yul\":10085:10099   */\n      add\n        /* \"#utility.yul\":10078:10123   */\n      mstore\n        /* \"#utility.yul\":9961:10130   */\n      pop\n      jump\t// out\n        /* \"#utility.yul\":10136:10502   */\n    tag_171:\n        /* \"#utility.yul\":10278:10281   */\n      0x00\n        /* \"#utility.yul\":10299:10366   */\n      tag_301\n        /* \"#utility.yul\":10363:10365   */\n      0x13\n        /* \"#utility.yul\":10358:10361   */\n      dup4\n        /* \"#utility.yul\":10299:10366   */\n      tag_169\n      jump\t// in\n    tag_301:\n        /* \"#utility.yul\":10292:10366   */\n      swap2\n      pop\n        /* \"#utility.yul\":10375:10468   */\n      tag_302\n        /* \"#utility.yul\":10464:10467   */\n      dup3\n        /* \"#utility.yul\":10375:10468   */\n      tag_170\n      jump\t// in\n    tag_302:\n        /* \"#utility.yul\":10493:10495   */\n      0x20\n        /* \"#utility.yul\":10488:10491   */\n      dup3\n        /* \"#utility.yul\":10484:10496   */\n      add\n        /* \"#utility.yul\":10477:10496   */\n      swap1\n      pop\n        /* \"#utility.yul\":10136:10502   */\n      swap2\n      swap1\n      pop\n      jump\t// out\n        /* \"#utility.yul\":10508:10927   */\n    tag_37:\n        /* \"#utility.yul\":10674:10678   */\n      0x00\n        /* \"#utility.yul\":10712:10714   */\n      0x20\n        /* \"#utility.yul\":10701:10710   */\n      dup3\n        /* \"#utility.yul\":10697:10715   */\n      add\n        /* \"#utility.yul\":10689:10715   */\n      swap1\n      pop\n        /* \"#utility.yul\":10761:10770   */\n      dup2\n        /* \"#utility.yul\":10755:10759   */\n      dup2\n        /* \"#utility.yul\":10751:10771   */\n      sub\n        /* \"#utility.yul\":10747:10748   */\n      0x00\n        /* \"#utility.yul\":10736:10745   */\n      dup4\n        /* \"#utility.yul\":10732:10749   */\n      add\n        /* \"#utility.yul\":10725:10772   */\n      mstore\n        /* \"#utility.yul\":10789:10920   */\n      tag_304\n        /* \"#utility.yul\":10915:10919   */\n      dup2\n        /* \"#utility.yul\":10789:10920   */\n      tag_171\n      jump\t// in\n    tag_304:\n        /* \"#utility.yul\":10781:10920   */\n      swap1\n      pop\n        /* \"#utility.yul\":10508:10927   */\n      swap2\n      swap1\n      pop\n      jump\t// out\n        /* \"#utility.yul\":10933:11113   */\n    tag_45:\n        /* \"#utility.yul\":10981:11058   */\n      0x4e487b7100000000000000000000000000000000000000000000000000000000\n        /* \"#utility.yul\":10978:10979   */\n      0x00\n        /* \"#utility.yul\":10971:11059   */\n      mstore\n        /* \"#utility.yul\":11078:11082   */\n      0x32\n        /* \"#utility.yul\":11075:11076   */\n      0x04\n        /* \"#utility.yul\":11068:11083   */\n      mstore\n        /* \"#utility.yul\":11102:11106   */\n      0x24\n        /* \"#utility.yul\":11099:11100   */\n      0x00\n        /* \"#utility.yul\":11092:11107   */\n      revert\n        /* \"#utility.yul\":11119:11299   */\n    tag_172:\n        /* \"#utility.yul\":11167:11244   */\n      0x4e487b7100000000000000000000000000000000000000000000000000000000\n        /* \"#utility.yul\":11164:11165   */\n      0x00\n        /* \"#utility.yul\":11157:11245   */\n      mstore\n        /* \"#utility.yul\":11264:11268   */\n      0x11\n        /* \"#utility.yul\":11261:11262   */\n      0x04\n        /* \"#utility.yul\":11254:11269   */\n      mstore\n        /* \"#utility.yul\":11288:11292   */\n      0x24\n        /* \"#utility.yul\":11285:11286   */\n      0x00\n        /* \"#utility.yul\":11278:11293   */\n      revert\n        /* \"#utility.yul\":11305:11499   */\n    tag_52:\n        /* \"#utility.yul\":11345:11349   */\n      0x00\n        /* \"#utility.yul\":11365:11385   */\n      tag_308\n        /* \"#utility.yul\":11383:11384   */\n      dup3\n        /* \"#utility.yul\":11365:11385   */\n      tag_132\n      jump\t// in\n    tag_308:\n        /* \"#utility.yul\":11360:11385   */\n      swap2\n      pop\n        /* \"#utility.yul\":11399:11419   */\n      tag_309\n        /* \"#utility.yul\":11417:11418   */\n      dup4\n        /* \"#utility.yul\":11399:11419   */\n      tag_132\n      jump\t// in\n    tag_309:\n        /* \"#utility.yul\":11394:11419   */\n      swap3\n      pop\n        /* \"#utility.yul\":11443:11444   */\n      dup3\n        /* \"#utility.yul\":11440:11441   */\n      dup3\n        /* \"#utility.yul\":11436:11445   */\n      sub\n        /* \"#utility.yul\":11428:11445   */\n      swap1\n      pop\n        /* \"#utility.yul\":11467:11468   */\n      dup2\n        /* \"#utility.yul\":11461:11465   */\n      dup2\n        /* \"#utility.yul\":11458:11469   */\n      gt\n        /* \"#utility.yul\":11455:11492   */\n      iszero\n      tag_310\n      jumpi\n        /* \"#utility.yul\":11472:11490   */\n      tag_311\n      tag_172\n      jump\t// in\n    tag_311:\n        /* \"#utility.yul\":11455:11492   */\n    tag_310:\n        /* \"#utility.yul\":11305:11499   */\n      swap3\n      swap2\n      pop\n      pop\n      jump\t// out\n        /* \"#utility.yul\":11505:11696   */\n    tag_54:\n        /* \"#utility.yul\":11545:11548   */\n      0x00\n        /* \"#utility.yul\":11564:11584   */\n      tag_313\n        /* \"#utility.yul\":11582:11583   */\n      dup3\n        /* \"#utility.yul\":11564:11584   */\n      tag_132\n      jump\t// in\n    tag_313:\n        /* \"#utility.yul\":11559:11584   */\n      swap2\n      pop\n        /* \"#utility.yul\":11598:11618   */\n      tag_314\n        /* \"#utility.yul\":11616:11617   */\n      dup4\n        /* \"#utility.yul\":11598:11618   */\n      tag_132\n      jump\t// in\n    tag_314:\n        /* \"#utility.yul\":11593:11618   */\n      swap3\n      pop\n        /* \"#utility.yul\":11641:11642   */\n      dup3\n        /* \"#utility.yul\":11638:11639   */\n      dup3\n        /* \"#utility.yul\":11634:11643   */\n      add\n        /* \"#utility.yul\":11627:11643   */\n      swap1\n      pop\n        /* \"#utility.yul\":11662:11665   */\n      dup1\n        /* \"#utility.yul\":11659:11660   */\n      dup3\n        /* \"#utility.yul\":11656:11666   */\n      gt\n        /* \"#utility.yul\":11653:11689   */\n      iszero\n      tag_315\n      jumpi\n        /* \"#utility.yul\":11669:11687   */\n      tag_316\n      tag_172\n      jump\t// in\n    tag_316:\n        /* \"#utility.yul\":11653:11689   */\n    tag_315:\n        /* \"#utility.yul\":11505:11696   */\n      swap3\n      swap2\n      pop\n      pop\n      jump\t// out\n        /* \"#utility.yul\":11702:11882   */\n    tag_173:\n        /* \"#utility.yul\":11750:11827   */\n      0x4e487b7100000000000000000000000000000000000000000000000000000000\n        /* \"#utility.yul\":11747:11748   */\n      0x00\n        /* \"#utility.yul\":11740:11828   */\n      mstore\n        /* \"#utility.yul\":11847:11851   */\n      0x22\n        /* \"#utility.yul\":11844:11845   */\n      0x04\n        /* \"#utility.yul\":11837:11852   */\n      mstore\n        /* \"#utility.yul\":11871:11875   */\n      0x24\n        /* \"#utility.yul\":11868:11869   */\n      0x00\n        /* \"#utility.yul\":11861:11876   */\n      revert\n        /* \"#utility.yul\":11888:12208   */\n    tag_111:\n        /* \"#utility.yul\":11932:11938   */\n      0x00\n        /* \"#utility.yul\":11969:11970   */\n      0x02\n        /* \"#utility.yul\":11963:11967   */\n      dup3\n        /* \"#utility.yul\":11959:11971   */\n      div\n        /* \"#utility.yul\":11949:11971   */\n      swap1\n      pop\n        /* \"#utility.yul\":12016:12017   */\n      0x01\n        /* \"#utility.yul\":12010:12014   */\n      dup3\n        /* \"#utility.yul\":12006:12018   */\n      and\n        /* \"#utility.yul\":12037:12055   */\n      dup1\n        /* \"#utility.yul\":12027:12108   */\n      tag_319\n      jumpi\n        /* \"#utility.yul\":12093:12097   */\n      0x7f\n        /* \"#utility.yul\":12085:12091   */\n      dup3\n        /* \"#utility.yul\":12081:12098   */\n      and\n        /* \"#utility.yul\":12071:12098   */\n      swap2\n      pop\n        /* \"#utility.yul\":12027:12108   */\n    tag_319:\n        /* \"#utility.yul\":12155:12157   */\n      0x20\n        /* \"#utility.yul\":12147:12153   */\n      dup3\n        /* \"#utility.yul\":12144:12158   */\n      lt\n        /* \"#utility.yul\":12124:12142   */\n      dup2\n        /* \"#utility.yul\":12121:12159   */\n      sub\n        /* \"#utility.yul\":12118:12202   */\n      tag_320\n      jumpi\n        /* \"#utility.yul\":12174:12192   */\n      tag_321\n      tag_173\n      jump\t// in\n    tag_321:\n        /* \"#utility.yul\":12118:12202   */\n    tag_320:\n        /* \"#utility.yul\":11939:12208   */\n      pop\n        /* \"#utility.yul\":11888:12208   */\n      swap2\n      swap1\n      pop\n      jump\t// out\n        /* \"#utility.yul\":12214:12363   */\n    tag_174:\n        /* \"#utility.yul\":12263:12269   */\n      0x00\n        /* \"#utility.yul\":12297:12302   */\n      dup2\n        /* \"#utility.yul\":12291:12303   */\n      sload\n        /* \"#utility.yul\":12281:12303   */\n      swap1\n      pop\n        /* \"#utility.yul\":12323:12356   */\n      tag_323\n        /* \"#utility.yul\":12349:12355   */\n      dup2\n        /* \"#utility.yul\":12323:12356   */\n      tag_111\n      jump\t// in\n    tag_323:\n        /* \"#utility.yul\":12313:12356   */\n      swap1\n      pop\n        /* \"#utility.yul\":12214:12363   */\n      swap2\n      swap1\n      pop\n      jump\t// out\n        /* \"#utility.yul\":12369:12510   */\n    tag_175:\n        /* \"#utility.yul\":12418:12422   */\n      0x00\n        /* \"#utility.yul\":12441:12444   */\n      dup2\n        /* \"#utility.yul\":12433:12444   */\n      swap1\n      pop\n        /* \"#utility.yul\":12464:12467   */\n      dup2\n        /* \"#utility.yul\":12461:12462   */\n      0x00\n        /* \"#utility.yul\":12454:12468   */\n      mstore\n        /* \"#utility.yul\":12498:12502   */\n      0x20\n        /* \"#utility.yul\":12495:12496   */\n      0x00\n        /* \"#utility.yul\":12485:12503   */\n      keccak256\n        /* \"#utility.yul\":12477:12503   */\n      swap1\n      pop\n        /* \"#utility.yul\":12369:12510   */\n      swap2\n      swap1\n      pop\n      jump\t// out\n        /* \"#utility.yul\":12516:12609   */\n    tag_176:\n        /* \"#utility.yul\":12553:12559   */\n      0x00\n        /* \"#utility.yul\":12600:12602   */\n      0x20\n        /* \"#utility.yul\":12595:12597   */\n      0x1f\n        /* \"#utility.yul\":12588:12593   */\n      dup4\n        /* \"#utility.yul\":12584:12598   */\n      add\n        /* \"#utility.yul\":12580:12603   */\n      div\n        /* \"#utility.yul\":12570:12603   */\n      swap1\n      pop\n        /* \"#utility.yul\":12516:12609   */\n      swap2\n      swap1\n      pop\n      jump\t// out\n        /* \"#utility.yul\":12615:12722   */\n    tag_177:\n        /* \"#utility.yul\":12659:12667   */\n      0x00\n        /* \"#utility.yul\":12709:12714   */\n      dup3\n        /* \"#utility.yul\":12703:12707   */\n      dup3\n        /* \"#utility.yul\":12699:12715   */\n      shl\n        /* \"#utility.yul\":12678:12715   */\n      swap1\n      pop\n        /* \"#utility.yul\":12615:12722   */\n      swap3\n      swap2\n      pop\n      pop\n      jump\t// out\n        /* \"#utility.yul\":12728:13121   */\n    tag_178:\n        /* \"#utility.yul\":12797:12803   */\n      0x00\n        /* \"#utility.yul\":12847:12848   */\n      0x08\n        /* \"#utility.yul\":12835:12845   */\n      dup4\n        /* \"#utility.yul\":12831:12849   */\n      mul\n        /* \"#utility.yul\":12870:12967   */\n      tag_328\n        /* \"#utility.yul\":12900:12966   */\n      0xffffffffffffffffffffffffffffffffffffffffffffffffffffffffffffffff\n        /* \"#utility.yul\":12889:12898   */\n      dup3\n        /* \"#utility.yul\":12870:12967   */\n      tag_177\n      jump\t// in\n    tag_328:\n        /* \"#utility.yul\":12988:13027   */\n      tag_329\n        /* \"#utility.yul\":13018:13026   */\n      dup7\n        /* \"#utility.yul\":13007:13016   */\n      dup4\n        /* \"#utility.yul\":12988:13027   */\n      tag_177\n      jump\t// in\n    tag_329:\n        /* \"#utility.yul\":12976:13027   */\n      swap6\n      pop\n        /* \"#utility.yul\":13060:13064   */\n      dup1\n        /* \"#utility.yul\":13056:13065   */\n      not\n        /* \"#utility.yul\":13049:13054   */\n      dup5\n        /* \"#utility.yul\":13045:13066   */\n      and\n        /* \"#utility.yul\":13036:13066   */\n      swap4\n      pop\n        /* \"#utility.yul\":13109:13113   */\n      dup1\n        /* \"#utility.yul\":13099:13107   */\n      dup7\n        /* \"#utility.yul\":13095:13114   */\n      and\n        /* \"#utility.yul\":13088:13093   */\n      dup5\n        /* \"#utility.yul\":13085:13115   */\n      or\n        /* \"#utility.yul\":13075:13115   */\n      swap3\n      pop\n        /* \"#utility.yul\":12804:13121   */\n      pop\n      pop\n        /* \"#utility.yul\":12728:13121   */\n      swap4\n      swap3\n      pop\n      pop\n      pop\n      jump\t// out\n        /* \"#utility.yul\":13127:13187   */\n    tag_179:\n        /* \"#utility.yul\":13155:13158   */\n      0x00\n        /* \"#utility.yul\":13176:13181   */\n      dup2\n        /* \"#utility.yul\":13169:13181   */\n      swap1\n      pop\n        /* \"#utility.yul\":13127:13187   */\n      swap2\n      swap1\n      pop\n      jump\t// out\n        /* \"#utility.yul\":13193:13335   */\n    tag_180:\n        /* \"#utility.yul\":13243:13252   */\n      0x00\n        /* \"#utility.yul\":13276:13329   */\n      tag_332\n        /* \"#utility.yul\":13294:13328   */\n      tag_333\n        /* \"#utility.yul\":13303:13327   */\n      tag_334\n        /* \"#utility.yul\":13321:13326   */\n      dup5\n        /* \"#utility.yul\":13303:13327   */\n      tag_132\n      jump\t// in\n    tag_334:\n        /* \"#utility.yul\":13294:13328   */\n      tag_179\n      jump\t// in\n    tag_333:\n        /* \"#utility.yul\":13276:13329   */\n      tag_132\n      jump\t// in\n    tag_332:\n        /* \"#utility.yul\":13263:13329   */\n      swap1\n      pop\n        /* \"#utility.yul\":13193:13335   */\n      swap2\n      swap1\n      pop\n      jump\t// out\n        /* \"#utility.yul\":13341:13416   */\n    tag_181:\n        /* \"#utility.yul\":13384:13387   */\n      0x00\n        /* \"#utility.yul\":13405:13410   */\n      dup2\n        /* \"#utility.yul\":13398:13410   */\n      swap1\n      pop\n        /* \"#utility.yul\":13341:13416   */\n      swap2\n      swap1\n      pop\n      jump\t// out\n        /* \"#utility.yul\":13422:13691   */\n    tag_182:\n        /* \"#utility.yul\":13532:13571   */\n      tag_337\n        /* \"#utility.yul\":13563:13570   */\n      dup4\n        /* \"#utility.yul\":13532:13571   */\n      tag_180\n      jump\t// in\n    tag_337:\n        /* \"#utility.yul\":13593:13684   */\n      tag_338\n        /* \"#utility.yul\":13642:13683   */\n      tag_339\n        /* \"#utility.yul\":13666:13682   */\n      dup3\n        /* \"#utility.yul\":13642:13683   */\n      tag_181\n      jump\t// in\n    tag_339:\n        /* \"#utility.yul\":13634:13640   */\n      dup5\n        /* \"#utility.yul\":13627:13631   */\n      dup5\n        /* \"#utility.yul\":13621:13632   */\n      sload\n        /* \"#utility.yul\":13593:13684   */\n      tag_178\n      jump\t// in\n    tag_338:\n        /* \"#utility.yul\":13587:13591   */\n      dup3\n        /* \"#utility.yul\":13580:13685   */\n      sstore\n        /* \"#utility.yul\":13498:13691   */\n      pop\n        /* \"#utility.yul\":13422:13691   */\n      pop\n      pop\n      pop\n      jump\t// out\n        /* \"#utility.yul\":13697:13770   */\n    tag_183:\n        /* \"#utility.yul\":13742:13745   */\n      0x00\n        /* \"#utility.yul\":13763:13764   */\n      0x00\n        /* \"#utility.yul\":13756:13764   */\n      swap1\n      pop\n        /* \"#utility.yul\":13697:13770   */\n      swap1\n      jump\t// out\n        /* \"#utility.yul\":13776:13965   */\n    tag_184:\n        /* \"#utility.yul\":13853:13885   */\n      tag_342\n      tag_183\n      jump\t// in\n    tag_342:\n        /* \"#utility.yul\":13894:13959   */\n      tag_343\n        /* \"#utility.yul\":13952:13958   */\n      dup2\n        /* \"#utility.yul\":13944:13950   */\n      dup5\n        /* \"#utility.yul\":13938:13942   */\n      dup5\n        /* \"#utility.yul\":13894:13959   */\n      tag_182\n      jump\t// in\n    tag_343:\n        /* \"#utility.yul\":13829:13965   */\n      pop\n        /* \"#utility.yul\":13776:13965   */\n      pop\n      pop\n      jump\t// out\n        /* \"#utility.yul\":13971:14157   */\n    tag_185:\n        /* \"#utility.yul\":14031:14151   */\n    tag_345:\n        /* \"#utility.yul\":14048:14051   */\n      dup2\n        /* \"#utility.yul\":14041:14046   */\n      dup2\n        /* \"#utility.yul\":14038:14052   */\n      lt\n        /* \"#utility.yul\":14031:14151   */\n      iszero\n      tag_347\n      jumpi\n        /* \"#utility.yul\":14102:14141   */\n      tag_348\n        /* \"#utility.yul\":14139:14140   */\n      0x00\n        /* \"#utility.yul\":14132:14137   */\n      dup3\n        /* \"#utility.yul\":14102:14141   */\n      tag_184\n      jump\t// in\n    tag_348:\n        /* \"#utility.yul\":14075:14076   */\n      0x01\n        /* \"#utility.yul\":14068:14073   */\n      dup2\n        /* \"#utility.yul\":14064:14077   */\n      add\n        /* \"#utility.yul\":14055:14077   */\n      swap1\n      pop\n        /* \"#utility.yul\":14031:14151   */\n      jump(tag_345)\n    tag_347:\n        /* \"#utility.yul\":13971:14157   */\n      pop\n      pop\n      jump\t// out\n        /* \"#utility.yul\":14163:14706   */\n    tag_186:\n        /* \"#utility.yul\":14264:14266   */\n      0x1f\n        /* \"#utility.yul\":14259:14262   */\n      dup3\n        /* \"#utility.yul\":14256:14267   */\n      gt\n        /* \"#utility.yul\":14253:14699   */\n      iszero\n      tag_350\n      jumpi\n        /* \"#utility.yul\":14298:14336   */\n      tag_351\n        /* \"#utility.yul\":14330:14335   */\n      dup2\n        /* \"#utility.yul\":14298:14336   */\n      tag_175\n      jump\t// in\n    tag_351:\n        /* \"#utility.yul\":14382:14411   */\n      tag_352\n        /* \"#utility.yul\":14400:14410   */\n      dup5\n        /* \"#utility.yul\":14382:14411   */\n      tag_176\n      jump\t// in\n    tag_352:\n        /* \"#utility.yul\":14372:14380   */\n      dup2\n        /* \"#utility.yul\":14368:14412   */\n      add\n        /* \"#utility.yul\":14565:14567   */\n      0x20\n        /* \"#utility.yul\":14553:14563   */\n      dup6\n        /* \"#utility.yul\":14550:14568   */\n      lt\n        /* \"#utility.yul\":14547:14596   */\n      iszero\n      tag_353\n      jumpi\n        /* \"#utility.yul\":14586:14594   */\n      dup2\n        /* \"#utility.yul\":14571:14594   */\n      swap1\n      pop\n        /* \"#utility.yul\":14547:14596   */\n    tag_353:\n        /* \"#utility.yul\":14609:14689   */\n      tag_354\n        /* \"#utility.yul\":14665:14687   */\n      tag_355\n        /* \"#utility.yul\":14683:14686   */\n      dup6\n        /* \"#utility.yul\":14665:14687   */\n      tag_176\n      jump\t// in\n    tag_355:\n        /* \"#utility.yul\":14655:14663   */\n      dup4\n        /* \"#utility.yul\":14651:14688   */\n      add\n        /* \"#utility.yul\":14638:14649   */\n      dup3\n        /* \"#utility.yul\":14609:14689   */\n      tag_185\n      jump\t// in\n    tag_354:\n        /* \"#utility.yul\":14268:14699   */\n      pop\n      pop\n        /* \"#utility.yul\":14253:14699   */\n    tag_350:\n        /* \"#utility.yul\":14163:14706   */\n      pop\n      pop\n      pop\n      jump\t// out\n        /* \"#utility.yul\":14712:14829   */\n    tag_187:\n        /* \"#utility.yul\":14766:14774   */\n      0x00\n        /* \"#utility.yul\":14816:14821   */\n      dup3\n        /* \"#utility.yul\":14810:14814   */\n      dup3\n        /* \"#utility.yul\":14806:14822   */\n      shr\n        /* \"#utility.yul\":14785:14822   */\n      swap1\n      pop\n        /* \"#utility.yul\":14712:14829   */\n      swap3\n      swap2\n      pop\n      pop\n      jump\t// out\n        /* \"#utility.yul\":14835:15004   */\n    tag_188:\n        /* \"#utility.yul\":14879:14885   */\n      0x00\n        /* \"#utility.yul\":14912:14963   */\n      tag_358\n        /* \"#utility.yul\":14960:14961   */\n      0x00\n        /* \"#utility.yul\":14956:14962   */\n      not\n        /* \"#utility.yul\":14948:14953   */\n      dup5\n        /* \"#utility.yul\":14945:14946   */\n      0x08\n        /* \"#utility.yul\":14941:14954   */\n      mul\n        /* \"#utility.yul\":14912:14963   */\n      tag_187\n      jump\t// in\n    tag_358:\n        /* \"#utility.yul\":14908:14964   */\n      not\n        /* \"#utility.yul\":14993:14997   */\n      dup1\n        /* \"#utility.yul\":14987:14991   */\n      dup4\n        /* \"#utility.yul\":14983:14998   */\n      and\n        /* \"#utility.yul\":14973:14998   */\n      swap2\n      pop\n        /* \"#utility.yul\":14886:15004   */\n      pop\n        /* \"#utility.yul\":14835:15004   */\n      swap3\n      swap2\n      pop\n      pop\n      jump\t// out\n        /* \"#utility.yul\":15009:15304   */\n    tag_189:\n        /* \"#utility.yul\":15085:15089   */\n      0x00\n        /* \"#utility.yul\":15231:15260   */\n      tag_360\n        /* \"#utility.yul\":15256:15259   */\n      dup4\n        /* \"#utility.yul\":15250:15254   */\n      dup4\n        /* \"#utility.yul\":15231:15260   */\n      tag_188\n      jump\t// in\n    tag_360:\n        /* \"#utility.yul\":15223:15260   */\n      swap2\n      pop\n        /* \"#utility.yul\":15293:15296   */\n      dup3\n        /* \"#utility.yul\":15290:15291   */\n      0x02\n        /* \"#utility.yul\":15286:15297   */\n      mul\n        /* \"#utility.yul\":15280:15284   */\n      dup3\n        /* \"#utility.yul\":15277:15298   */\n      or\n        /* \"#utility.yul\":15269:15298   */\n      swap1\n      pop\n        /* \"#utility.yul\":15009:15304   */\n      swap3\n      swap2\n      pop\n      pop\n      jump\t// out\n        /* \"#utility.yul\":15309:16760   */\n    tag_62:\n        /* \"#utility.yul\":15420:15423   */\n      dup2\n        /* \"#utility.yul\":15414:15418   */\n      dup2\n        /* \"#utility.yul\":15411:15424   */\n      sub\n        /* \"#utility.yul\":15408:15434   */\n      tag_362\n      jumpi\n        /* \"#utility.yul\":15427:15432   */\n      pop\n      pop\n      jump(tag_361)\n        /* \"#utility.yul\":15408:15434   */\n    tag_362:\n        /* \"#utility.yul\":15458:15492   */\n      tag_363\n        /* \"#utility.yul\":15488:15491   */\n      dup3\n        /* \"#utility.yul\":15458:15492   */\n      tag_174\n      jump\t// in\n    tag_363:\n        /* \"#utility.yul\":15557:15575   */\n      0xffffffffffffffff\n        /* \"#utility.yul\":15549:15555   */\n      dup2\n        /* \"#utility.yul\":15546:15576   */\n      gt\n        /* \"#utility.yul\":15543:15599   */\n      iszero\n      tag_364\n      jumpi\n        /* \"#utility.yul\":15579:15597   */\n      tag_365\n      tag_147\n      jump\t// in\n    tag_365:\n        /* \"#utility.yul\":15543:15599   */\n    tag_364:\n        /* \"#utility.yul\":15623:15661   */\n      tag_366\n        /* \"#utility.yul\":15655:15659   */\n      dup3\n        /* \"#utility.yul\":15649:15660   */\n      sload\n        /* \"#utility.yul\":15623:15661   */\n      tag_111\n      jump\t// in\n    tag_366:\n        /* \"#utility.yul\":15708:15775   */\n      tag_367\n        /* \"#utility.yul\":15768:15774   */\n      dup3\n        /* \"#utility.yul\":15760:15766   */\n      dup3\n        /* \"#utility.yul\":15754:15758   */\n      dup6\n        /* \"#utility.yul\":15708:15775   */\n      tag_186\n      jump\t// in\n    tag_367:\n        /* \"#utility.yul\":15802:15803   */\n      0x00\n        /* \"#utility.yul\":15831:15833   */\n      0x1f\n        /* \"#utility.yul\":15823:15829   */\n      dup4\n        /* \"#utility.yul\":15820:15834   */\n      gt\n        /* \"#utility.yul\":15848:15849   */\n      0x01\n        /* \"#utility.yul\":15843:16515   */\n      dup2\n      eq\n      tag_369\n      jumpi\n        /* \"#utility.yul\":16559:16560   */\n      0x00\n        /* \"#utility.yul\":16576:16582   */\n      dup5\n        /* \"#utility.yul\":16573:16650   */\n      iszero\n      tag_370\n      jumpi\n        /* \"#utility.yul\":16625:16634   */\n      dup3\n        /* \"#utility.yul\":16620:16623   */\n      dup8\n        /* \"#utility.yul\":16616:16635   */\n      add\n        /* \"#utility.yul\":16610:16636   */\n      sload\n        /* \"#utility.yul\":16601:16636   */\n      swap1\n      pop\n        /* \"#utility.yul\":16573:16650   */\n    tag_370:\n        /* \"#utility.yul\":16676:16743   */\n      tag_371\n        /* \"#utility.yul\":16736:16742   */\n      dup6\n        /* \"#utility.yul\":16729:16734   */\n      dup3\n        /* \"#utility.yul\":16676:16743   */\n      tag_189\n      jump\t// in\n    tag_371:\n        /* \"#utility.yul\":16670:16674   */\n      dup7\n        /* \"#utility.yul\":16663:16744   */\n      sstore\n        /* \"#utility.yul\":16532:16754   */\n      pop\n        /* \"#utility.yul\":15813:16754   */\n      jump(tag_368)\n        /* \"#utility.yul\":15843:16515   */\n    tag_369:\n        /* \"#utility.yul\":15895:15899   */\n      0x1f\n        /* \"#utility.yul\":15891:15900   */\n      not\n        /* \"#utility.yul\":15883:15889   */\n      dup5\n        /* \"#utility.yul\":15879:15901   */\n      and\n        /* \"#utility.yul\":15921:15957   */\n      tag_372\n        /* \"#utility.yul\":15953:15956   */\n      dup8\n        /* \"#utility.yul\":15921:15957   */\n      tag_175\n      jump\t// in\n    tag_372:\n        /* \"#utility.yul\":15914:15957   */\n      swap7\n      pop\n        /* \"#utility.yul\":15984:16021   */\n      tag_373\n        /* \"#utility.yul\":16016:16020   */\n      dup7\n        /* \"#utility.yul\":15984:16021   */\n      tag_175\n      jump\t// in\n    tag_373:\n        /* \"#utility.yul\":16043:16044   */\n      0x00\n        /* \"#utility.yul\":16057:16264   */\n    tag_374:\n        /* \"#utility.yul\":16071:16078   */\n      dup3\n        /* \"#utility.yul\":16068:16069   */\n      dup2\n        /* \"#utility.yul\":16065:16079   */\n      lt\n        /* \"#utility.yul\":16057:16264   */\n      iszero\n      tag_376\n      jumpi\n        /* \"#utility.yul\":16150:16159   */\n      dup5\n        /* \"#utility.yul\":16145:16148   */\n      dup10\n        /* \"#utility.yul\":16141:16160   */\n      add\n        /* \"#utility.yul\":16135:16161   */\n      sload\n        /* \"#utility.yul\":16127:16133   */\n      dup3\n        /* \"#utility.yul\":16120:16162   */\n      sstore\n        /* \"#utility.yul\":16201:16202   */\n      0x01\n        /* \"#utility.yul\":16193:16199   */\n      dup3\n        /* \"#utility.yul\":16189:16203   */\n      add\n        /* \"#utility.yul\":16179:16203   */\n      swap2\n      pop\n        /* \"#utility.yul\":16248:16249   */\n      0x01\n        /* \"#utility.yul\":16237:16246   */\n      dup6\n        /* \"#utility.yul\":16233:16250   */\n      add\n        /* \"#utility.yul\":16220:16250   */\n      swap5\n      pop\n        /* \"#utility.yul\":16094:16098   */\n      0x20\n        /* \"#utility.yul\":16091:16092   */\n      dup2\n        /* \"#utility.yul\":16087:16099   */\n      add\n        /* \"#utility.yul\":16082:16099   */\n      swap1\n      pop\n        /* \"#utility.yul\":16057:16264   */\n      jump(tag_374)\n    tag_376:\n        /* \"#utility.yul\":16292:16298   */\n      dup7\n        /* \"#utility.yul\":16283:16290   */\n      dup4\n        /* \"#utility.yul\":16280:16299   */\n      lt\n        /* \"#utility.yul\":16277:16456   */\n      iszero\n      tag_377\n      jumpi\n        /* \"#utility.yul\":16350:16359   */\n      dup5\n        /* \"#utility.yul\":16345:16348   */\n      dup10\n        /* \"#utility.yul\":16341:16360   */\n      add\n        /* \"#utility.yul\":16335:16361   */\n      sload\n        /* \"#utility.yul\":16393:16441   */\n      tag_378\n        /* \"#utility.yul\":16435:16439   */\n      0x1f\n        /* \"#utility.yul\":16427:16433   */\n      dup10\n        /* \"#utility.yul\":16423:16440   */\n      and\n        /* \"#utility.yul\":16412:16421   */\n      dup3\n        /* \"#utility.yul\":16393:16441   */\n      tag_188\n      jump\t// in\n    tag_378:\n        /* \"#utility.yul\":16385:16391   */\n      dup4\n        /* \"#utility.yul\":16378:16442   */\n      sstore\n        /* \"#utility.yul\":16300:16456   */\n      pop\n        /* \"#utility.yul\":16277:16456   */\n    tag_377:\n        /* \"#utility.yul\":16502:16503   */\n      0x01\n        /* \"#utility.yul\":16498:16499   */\n      0x02\n        /* \"#utility.yul\":16490:16496   */\n      dup9\n        /* \"#utility.yul\":16486:16500   */\n      mul\n        /* \"#utility.yul\":16482:16504   */\n      add\n        /* \"#utility.yul\":16476:16480   */\n      dup9\n        /* \"#utility.yul\":16469:16505   */\n      sstore\n        /* \"#utility.yul\":15850:16515   */\n      pop\n      pop\n      pop\n        /* \"#utility.yul\":15813:16754   */\n    tag_368:\n      pop\n        /* \"#utility.yul\":15398:16760   */\n      pop\n      pop\n      pop\n        /* \"#utility.yul\":15309:16760   */\n      pop\n      pop\n    tag_361:\n      jump\t// out\n        /* \"#utility.yul\":16766:16946   */\n    tag_65:\n        /* \"#utility.yul\":16814:16891   */\n      0x4e487b7100000000000000000000000000000000000000000000000000000000\n        /* \"#utility.yul\":16811:16812   */\n      0x00\n        /* \"#utility.yul\":16804:16892   */\n      mstore\n        /* \"#utility.yul\":16911:16915   */\n      0x31\n        /* \"#utility.yul\":16908:16909   */\n      0x04\n        /* \"#utility.yul\":16901:16916   */\n      mstore\n        /* \"#utility.yul\":16935:16939   */\n      0x24\n        /* \"#utility.yul\":16932:16933   */\n      0x00\n        /* \"#utility.yul\":16925:16940   */\n      revert\n        /* \"#utility.yul\":16952:17110   */\n    tag_190:\n        /* \"#utility.yul\":17092:17102   */\n      0x4e6f204d6f6e6579000000000000000000000000000000000000000000000000\n        /* \"#utility.yul\":17088:17089   */\n      0x00\n        /* \"#utility.yul\":17080:17086   */\n      dup3\n        /* \"#utility.yul\":17076:17090   */\n      add\n        /* \"#utility.yul\":17069:17103   */\n      mstore\n        /* \"#utility.yul\":16952:17110   */\n      pop\n      jump\t// out\n        /* \"#utility.yul\":17116:17481   */\n    tag_191:\n        /* \"#utility.yul\":17258:17261   */\n      0x00\n        /* \"#utility.yul\":17279:17345   */\n      tag_382\n        /* \"#utility.yul\":17343:17344   */\n      0x08\n        /* \"#utility.yul\":17338:17341   */\n      dup4\n        /* \"#utility.yul\":17279:17345   */\n      tag_169\n      jump\t// in\n    tag_382:\n        /* \"#utility.yul\":17272:17345   */\n      swap2\n      pop\n        /* \"#utility.yul\":17354:17447   */\n      tag_383\n        /* \"#utility.yul\":17443:17446   */\n      dup3\n        /* \"#utility.yul\":17354:17447   */\n      tag_190\n      jump\t// in\n    tag_383:\n        /* \"#utility.yul\":17472:17474   */\n      0x20\n        /* \"#utility.yul\":17467:17470   */\n      dup3\n        /* \"#utility.yul\":17463:17475   */\n      add\n        /* \"#utility.yul\":17456:17475   */\n      swap1\n      pop\n        /* \"#utility.yul\":17116:17481   */\n      swap2\n      swap1\n      pop\n      jump\t// out\n        /* \"#utility.yul\":17487:17906   */\n    tag_73:\n        /* \"#utility.yul\":17653:17657   */\n      0x00\n        /* \"#utility.yul\":17691:17693   */\n      0x20\n        /* \"#utility.yul\":17680:17689   */\n      dup3\n        /* \"#utility.yul\":17676:17694   */\n      add\n        /* \"#utility.yul\":17668:17694   */\n      swap1\n      pop\n        /* \"#utility.yul\":17740:17749   */\n      dup2\n        /* \"#utility.yul\":17734:17738   */\n      dup2\n        /* \"#utility.yul\":17730:17750   */\n      sub\n        /* \"#utility.yul\":17726:17727   */\n      0x00\n        /* \"#utility.yul\":17715:17724   */\n      dup4\n        /* \"#utility.yul\":17711:17728   */\n      add\n        /* \"#utility.yul\":17704:17751   */\n      mstore\n        /* \"#utility.yul\":17768:17899   */\n      tag_385\n        /* \"#utility.yul\":17894:17898   */\n      dup2\n        /* \"#utility.yul\":17768:17899   */\n      tag_191\n      jump\t// in\n    tag_385:\n        /* \"#utility.yul\":17760:17899   */\n      swap1\n      pop\n        /* \"#utility.yul\":17487:17906   */\n      swap2\n      swap1\n      pop\n      jump\t// out\n        /* \"#utility.yul\":17912:18322   */\n    tag_82:\n        /* \"#utility.yul\":17952:17959   */\n      0x00\n        /* \"#utility.yul\":17975:17995   */\n      tag_387\n        /* \"#utility.yul\":17993:17994   */\n      dup3\n        /* \"#utility.yul\":17975:17995   */\n      tag_132\n      jump\t// in\n    tag_387:\n        /* \"#utility.yul\":17970:17995   */\n      swap2\n      pop\n        /* \"#utility.yul\":18009:18029   */\n      tag_388\n        /* \"#utility.yul\":18027:18028   */\n      dup4\n        /* \"#utility.yul\":18009:18029   */\n      tag_132\n      jump\t// in\n    tag_388:\n        /* \"#utility.yul\":18004:18029   */\n      swap3\n      pop\n        /* \"#utility.yul\":18064:18065   */\n      dup3\n        /* \"#utility.yul\":18061:18062   */\n      dup3\n        /* \"#utility.yul\":18057:18066   */\n      mul\n        /* \"#utility.yul\":18086:18116   */\n      tag_389\n        /* \"#utility.yul\":18104:18115   */\n      dup2\n        /* \"#utility.yul\":18086:18116   */\n      tag_132\n      jump\t// in\n    tag_389:\n        /* \"#utility.yul\":18075:18116   */\n      swap2\n      pop\n        /* \"#utility.yul\":18265:18266   */\n      dup3\n        /* \"#utility.yul\":18256:18263   */\n      dup3\n        /* \"#utility.yul\":18252:18267   */\n      div\n        /* \"#utility.yul\":18249:18250   */\n      dup5\n        /* \"#utility.yul\":18246:18268   */\n      eq\n        /* \"#utility.yul\":18226:18227   */\n      dup4\n        /* \"#utility.yul\":18219:18228   */\n      iszero\n        /* \"#utility.yul\":18199:18282   */\n      or\n        /* \"#utility.yul\":18176:18315   */\n      tag_390\n      jumpi\n        /* \"#utility.yul\":18295:18313   */\n      tag_391\n      tag_172\n      jump\t// in\n    tag_391:\n        /* \"#utility.yul\":18176:18315   */\n    tag_390:\n        /* \"#utility.yul\":17960:18322   */\n      pop\n        /* \"#utility.yul\":17912:18322   */\n      swap3\n      swap2\n      pop\n      pop\n      jump\t// out\n        /* \"#utility.yul\":18328:18508   */\n    tag_192:\n        /* \"#utility.yul\":18376:18453   */\n      0x4e487b7100000000000000000000000000000000000000000000000000000000\n        /* \"#utility.yul\":18373:18374   */\n      0x00\n        /* \"#utility.yul\":18366:18454   */\n      mstore\n        /* \"#utility.yul\":18473:18477   */\n      0x12\n        /* \"#utility.yul\":18470:18471   */\n      0x04\n        /* \"#utility.yul\":18463:18478   */\n      mstore\n        /* \"#utility.yul\":18497:18501   */\n      0x24\n        /* \"#utility.yul\":18494:18495   */\n      0x00\n        /* \"#utility.yul\":18487:18502   */\n      revert\n        /* \"#utility.yul\":18514:18699   */\n    tag_84:\n        /* \"#utility.yul\":18554:18555   */\n      0x00\n        /* \"#utility.yul\":18571:18591   */\n      tag_394\n        /* \"#utility.yul\":18589:18590   */\n      dup3\n        /* \"#utility.yul\":18571:18591   */\n      tag_132\n      jump\t// in\n    tag_394:\n        /* \"#utility.yul\":18566:18591   */\n      swap2\n      pop\n        /* \"#utility.yul\":18605:18625   */\n      tag_395\n        /* \"#utility.yul\":18623:18624   */\n      dup4\n        /* \"#utility.yul\":18605:18625   */\n      tag_132\n      jump\t// in\n    tag_395:\n        /* \"#utility.yul\":18600:18625   */\n      swap3\n      pop\n        /* \"#utility.yul\":18644:18645   */\n      dup3\n        /* \"#utility.yul\":18634:18669   */\n      tag_396\n      jumpi\n        /* \"#utility.yul\":18649:18667   */\n      tag_397\n      tag_192\n      jump\t// in\n    tag_397:\n        /* \"#utility.yul\":18634:18669   */\n    tag_396:\n        /* \"#utility.yul\":18691:18692   */\n      dup3\n        /* \"#utility.yul\":18688:18689   */\n      dup3\n        /* \"#utility.yul\":18684:18693   */\n      div\n        /* \"#utility.yul\":18679:18693   */\n      swap1\n      pop\n        /* \"#utility.yul\":18514:18699   */\n      swap3\n      swap2\n      pop\n      pop\n      jump\t// out\n        /* \"#utility.yul\":18705:20100   */\n    tag_105:\n        /* \"#utility.yul\":18822:18859   */\n      tag_399\n        /* \"#utility.yul\":18855:18858   */\n      dup3\n        /* \"#utility.yul\":18822:18859   */\n      tag_160\n      jump\t// in\n    tag_399:\n        /* \"#utility.yul\":18924:18942   */\n      0xffffffffffffffff\n        /* \"#utility.yul\":18916:18922   */\n      dup2\n        /* \"#utility.yul\":18913:18943   */\n      gt\n        /* \"#utility.yul\":18910:18966   */\n      iszero\n      tag_400\n      jumpi\n        /* \"#utility.yul\":18946:18964   */\n      tag_401\n      tag_147\n      jump\t// in\n    tag_401:\n        /* \"#utility.yul\":18910:18966   */\n    tag_400:\n        /* \"#utility.yul\":18990:19028   */\n      tag_402\n        /* \"#utility.yul\":19022:19026   */\n      dup3\n        /* \"#utility.yul\":19016:19027   */\n      sload\n        /* \"#utility.yul\":18990:19028   */\n      tag_111\n      jump\t// in\n    tag_402:\n        /* \"#utility.yul\":19075:19142   */\n      tag_403\n        /* \"#utility.yul\":19135:19141   */\n      dup3\n        /* \"#utility.yul\":19127:19133   */\n      dup3\n        /* \"#utility.yul\":19121:19125   */\n      dup6\n        /* \"#utility.yul\":19075:19142   */\n      tag_186\n      jump\t// in\n    tag_403:\n        /* \"#utility.yul\":19169:19170   */\n      0x00\n        /* \"#utility.yul\":19193:19197   */\n      0x20\n        /* \"#utility.yul\":19180:19197   */\n      swap1\n      pop\n        /* \"#utility.yul\":19225:19227   */\n      0x1f\n        /* \"#utility.yul\":19217:19223   */\n      dup4\n        /* \"#utility.yul\":19214:19228   */\n      gt\n        /* \"#utility.yul\":19242:19243   */\n      0x01\n        /* \"#utility.yul\":19237:19855   */\n      dup2\n      eq\n      tag_405\n      jumpi\n        /* \"#utility.yul\":19899:19900   */\n      0x00\n        /* \"#utility.yul\":19916:19922   */\n      dup5\n        /* \"#utility.yul\":19913:19990   */\n      iszero\n      tag_406\n      jumpi\n        /* \"#utility.yul\":19965:19974   */\n      dup3\n        /* \"#utility.yul\":19960:19963   */\n      dup8\n        /* \"#utility.yul\":19956:19975   */\n      add\n        /* \"#utility.yul\":19950:19976   */\n      mload\n        /* \"#utility.yul\":19941:19976   */\n      swap1\n      pop\n        /* \"#utility.yul\":19913:19990   */\n    tag_406:\n        /* \"#utility.yul\":20016:20083   */\n      tag_407\n        /* \"#utility.yul\":20076:20082   */\n      dup6\n        /* \"#utility.yul\":20069:20074   */\n      dup3\n        /* \"#utility.yul\":20016:20083   */\n      tag_189\n      jump\t// in\n    tag_407:\n        /* \"#utility.yul\":20010:20014   */\n      dup7\n        /* \"#utility.yul\":20003:20084   */\n      sstore\n        /* \"#utility.yul\":19872:20094   */\n      pop\n        /* \"#utility.yul\":19207:20094   */\n      jump(tag_404)\n        /* \"#utility.yul\":19237:19855   */\n    tag_405:\n        /* \"#utility.yul\":19289:19293   */\n      0x1f\n        /* \"#utility.yul\":19285:19294   */\n      not\n        /* \"#utility.yul\":19277:19283   */\n      dup5\n        /* \"#utility.yul\":19273:19295   */\n      and\n        /* \"#utility.yul\":19323:19360   */\n      tag_408\n        /* \"#utility.yul\":19355:19359   */\n      dup7\n        /* \"#utility.yul\":19323:19360   */\n      tag_175\n      jump\t// in\n    tag_408:\n        /* \"#utility.yul\":19382:19383   */\n      0x00\n        /* \"#utility.yul\":19396:19604   */\n    tag_409:\n        /* \"#utility.yul\":19410:19417   */\n      dup3\n        /* \"#utility.yul\":19407:19408   */\n      dup2\n        /* \"#utility.yul\":19404:19418   */\n      lt\n        /* \"#utility.yul\":19396:19604   */\n      iszero\n      tag_411\n      jumpi\n        /* \"#utility.yul\":19489:19498   */\n      dup5\n        /* \"#utility.yul\":19484:19487   */\n      dup10\n        /* \"#utility.yul\":19480:19499   */\n      add\n        /* \"#utility.yul\":19474:19500   */\n      mload\n        /* \"#utility.yul\":19466:19472   */\n      dup3\n        /* \"#utility.yul\":19459:19501   */\n      sstore\n        /* \"#utility.yul\":19540:19541   */\n      0x01\n        /* \"#utility.yul\":19532:19538   */\n      dup3\n        /* \"#utility.yul\":19528:19542   */\n      add\n        /* \"#utility.yul\":19518:19542   */\n      swap2\n      pop\n        /* \"#utility.yul\":19587:19589   */\n      0x20\n        /* \"#utility.yul\":19576:19585   */\n      dup6\n        /* \"#utility.yul\":19572:19590   */\n      add\n        /* \"#utility.yul\":19559:19590   */\n      swap5\n      pop\n        /* \"#utility.yul\":19433:19437   */\n      0x20\n        /* \"#utility.yul\":19430:19431   */\n      dup2\n        /* \"#utility.yul\":19426:19438   */\n      add\n        /* \"#utility.yul\":19421:19438   */\n      swap1\n      pop\n        /* \"#utility.yul\":19396:19604   */\n      jump(tag_409)\n    tag_411:\n        /* \"#utility.yul\":19632:19638   */\n      dup7\n        /* \"#utility.yul\":19623:19630   */\n      dup4\n        /* \"#utility.yul\":19620:19639   */\n      lt\n        /* \"#utility.yul\":19617:19796   */\n      iszero\n      tag_412\n      jumpi\n        /* \"#utility.yul\":19690:19699   */\n      dup5\n        /* \"#utility.yul\":19685:19688   */\n      dup10\n        /* \"#utility.yul\":19681:19700   */\n      add\n        /* \"#utility.yul\":19675:19701   */\n      mload\n        /* \"#utility.yul\":19733:19781   */\n      tag_413\n        /* \"#utility.yul\":19775:19779   */\n      0x1f\n        /* \"#utility.yul\":19767:19773   */\n      dup10\n        /* \"#utility.yul\":19763:19780   */\n      and\n        /* \"#utility.yul\":19752:19761   */\n      dup3\n        /* \"#utility.yul\":19733:19781   */\n      tag_188\n      jump\t// in\n    tag_413:\n        /* \"#utility.yul\":19725:19731   */\n      dup4\n        /* \"#utility.yul\":19718:19782   */\n      sstore\n        /* \"#utility.yul\":19640:19796   */\n      pop\n        /* \"#utility.yul\":19617:19796   */\n    tag_412:\n        /* \"#utility.yul\":19842:19843   */\n      0x01\n        /* \"#utility.yul\":19838:19839   */\n      0x02\n        /* \"#utility.yul\":19830:19836   */\n      dup9\n        /* \"#utility.yul\":19826:19840   */\n      mul\n        /* \"#utility.yul\":19822:19844   */\n      add\n        /* \"#utility.yul\":19816:19820   */\n      dup9\n        /* \"#utility.yul\":19809:19845   */\n      sstore\n        /* \"#utility.yul\":19244:19855   */\n      pop\n      pop\n      pop\n        /* \"#utility.yul\":19207:20094   */\n    tag_404:\n      pop\n        /* \"#utility.yul\":18797:20100   */\n      pop\n      pop\n      pop\n        /* \"#utility.yul\":18705:20100   */\n      pop\n      pop\n      jump\t// out\n        /* \"#utility.yul\":20106:20253   */\n    tag_193:\n        /* \"#utility.yul\":20207:20218   */\n      0x00\n        /* \"#utility.yul\":20244:20247   */\n      dup2\n        /* \"#utility.yul\":20229:20247   */\n      swap1\n      pop\n        /* \"#utility.yul\":20106:20253   */\n      swap3\n      swap2\n      pop\n      pop\n      jump\t// out\n        /* \"#utility.yul\":20259:20373   */\n    tag_194:\n      pop\n      jump\t// out\n        /* \"#utility.yul\":20379:20777   */\n    tag_195:\n        /* \"#utility.yul\":20538:20541   */\n      0x00\n        /* \"#utility.yul\":20559:20642   */\n      tag_417\n        /* \"#utility.yul\":20640:20641   */\n      0x00\n        /* \"#utility.yul\":20635:20638   */\n      dup4\n        /* \"#utility.yul\":20559:20642   */\n      tag_193\n      jump\t// in\n    tag_417:\n        /* \"#utility.yul\":20552:20642   */\n      swap2\n      pop\n        /* \"#utility.yul\":20651:20744   */\n      tag_418\n        /* \"#utility.yul\":20740:20743   */\n      dup3\n        /* \"#utility.yul\":20651:20744   */\n      tag_194\n      jump\t// in\n    tag_418:\n        /* \"#utility.yul\":20769:20770   */\n      0x00\n        /* \"#utility.yul\":20764:20767   */\n      dup3\n        /* \"#utility.yul\":20760:20771   */\n      add\n        /* \"#utility.yul\":20753:20771   */\n      swap1\n      pop\n        /* \"#utility.yul\":20379:20777   */\n      swap2\n      swap1\n      pop\n      jump\t// out\n        /* \"#utility.yul\":20783:21162   */\n    tag_118:\n        /* \"#utility.yul\":20967:20970   */\n      0x00\n        /* \"#utility.yul\":20989:21136   */\n      tag_420\n        /* \"#utility.yul\":21132:21135   */\n      dup3\n        /* \"#utility.yul\":20989:21136   */\n      tag_195\n      jump\t// in\n    tag_420:\n        /* \"#utility.yul\":20982:21136   */\n      swap2\n      pop\n        /* \"#utility.yul\":21153:21156   */\n      dup2\n        /* \"#utility.yul\":21146:21156   */\n      swap1\n      pop\n        /* \"#utility.yul\":20783:21162   */\n      swap2\n      swap1\n      pop\n      jump\t// out\n        /* \"#utility.yul\":21168:21334   */\n    tag_196:\n        /* \"#utility.yul\":21308:21326   */\n      0x5472616e73666572206661696c65642e00000000000000000000000000000000\n        /* \"#utility.yul\":21304:21305   */\n      0x00\n        /* \"#utility.yul\":21296:21302   */\n      dup3\n        /* \"#utility.yul\":21292:21306   */\n      add\n        /* \"#utility.yul\":21285:21327   */\n      mstore\n        /* \"#utility.yul\":21168:21334   */\n      pop\n      jump\t// out\n        /* \"#utility.yul\":21340:21706   */\n    tag_197:\n        /* \"#utility.yul\":21482:21485   */\n      0x00\n        /* \"#utility.yul\":21503:21570   */\n      tag_423\n        /* \"#utility.yul\":21567:21569   */\n      0x10\n        /* \"#utility.yul\":21562:21565   */\n      dup4\n        /* \"#utility.yul\":21503:21570   */\n      tag_169\n      jump\t// in\n    tag_423:\n        /* \"#utility.yul\":21496:21570   */\n      swap2\n      pop\n        /* \"#utility.yul\":21579:21672   */\n      tag_424\n        /* \"#utility.yul\":21668:21671   */\n      dup3\n        /* \"#utility.yul\":21579:21672   */\n      tag_196\n      jump\t// in\n    tag_424:\n        /* \"#utility.yul\":21697:21699   */\n      0x20\n        /* \"#utility.yul\":21692:21695   */\n      dup3\n        /* \"#utility.yul\":21688:21700   */\n      add\n        /* \"#utility.yul\":21681:21700   */\n      swap1\n      pop\n        /* \"#utility.yul\":21340:21706   */\n      swap2\n      swap1\n      pop\n      jump\t// out\n        /* \"#utility.yul\":21712:22131   */\n    tag_124:\n        /* \"#utility.yul\":21878:21882   */\n      0x00\n        /* \"#utility.yul\":21916:21918   */\n      0x20\n        /* \"#utility.yul\":21905:21914   */\n      dup3\n        /* \"#utility.yul\":21901:21919   */\n      add\n        /* \"#utility.yul\":21893:21919   */\n      swap1\n      pop\n        /* \"#utility.yul\":21965:21974   */\n      dup2\n        /* \"#utility.yul\":21959:21963   */\n      dup2\n        /* \"#utility.yul\":21955:21975   */\n      sub\n        /* \"#utility.yul\":21951:21952   */\n      0x00\n        /* \"#utility.yul\":21940:21949   */\n      dup4\n        /* \"#utility.yul\":21936:21953   */\n      add\n        /* \"#utility.yul\":21929:21976   */\n      mstore\n        /* \"#utility.yul\":21993:22124   */\n      tag_426\n        /* \"#utility.yul\":22119:22123   */\n      dup2\n        /* \"#utility.yul\":21993:22124   */\n      tag_197\n      jump\t// in\n    tag_426:\n        /* \"#utility.yul\":21985:22124   */\n      swap1\n      pop\n        /* \"#utility.yul\":21712:22131   */\n      swap2\n      swap1\n      pop\n      jump\t// out\n\n    auxdata: 0xa26469706673582212205c6dcee821a3f3a33d0afcb0be4628f0315da6d59353eca6a2609ea3104bbb5d64736f6c634300081f0033\n}\n",
				"bytecode": {
					"linkReferences": {},
					"object": "6080604052348015600e575f5ffd5b50335f5f6101000a81548173ffffffffffffffffffffffffffffffffffffffff021916908373ffffffffffffffffffffffffffffffffffffffff16021790555061149d8061005b5f395ff3fe608060405260043610610054575f3560e01c80632a08deda14610058578063369a489d146100825780636e7301fd146100aa5780637943da69146100b4578063b499b79a146100ca578063e83a1b00146100f2575b5f5ffd5b348015610063575f5ffd5b5061006c61011c565b604051610079919061092b565b60405180910390f35b34801561008d575f5ffd5b506100a860048036038101906100a391906109af565b610123565b005b6100b26103b9565b005b3480156100bf575f5ffd5b506100c86103bb565b005b3480156100d5575f5ffd5b506100f060048036038101906100eb9190610b7b565b6104bb565b005b3480156100fd575f5ffd5b506101066106c4565b6040516101139190610d6d565b60405180910390f35b5f47905090565b5f5f9054906101000a900473ffffffffffffffffffffffffffffffffffffffff1673ffffffffffffffffffffffffffffffffffffffff163373ffffffffffffffffffffffffffffffffffffffff16146101b1576040517f08c379a00000000000000000000000000000000000000000000000000000000081526004016101a890610de7565b60405180910390fd5b60018080549050106103b6575f5f90505b6001805490508110156103b4578173ffffffffffffffffffffffffffffffffffffffff16600182815481106101fa576101f9610e05565b5b905f5260205f2090600302015f015f9054906101000a900473ffffffffffffffffffffffffffffffffffffffff1673ffffffffffffffffffffffffffffffffffffffff16036103a7575f8190505b600180805490506102599190610e5f565b81101561033d576001808261026e9190610e92565b8154811061027f5761027e610e05565b5b905f5260205f2090600302016001828154811061029f5761029e610e05565b5b905f5260205f2090600302015f82015f9054906101000a900473ffffffffffffffffffffffffffffffffffffffff16815f015f6101000a81548173ffffffffffffffffffffffffffffffffffffffff021916908373ffffffffffffffffffffffffffffffffffffffff1602179055506001820181600101908161032291906110d7565b50600282015481600201559050508080600101915050610248565b5060018054806103505761034f6111bc565b5b600190038181905f5260205f2090600302015f5f82015f6101000a81549073ffffffffffffffffffffffffffffffffffffffff0219169055600182015f61039791906108bb565b600282015f9055505090556103b4565b80806001019150506101c2565b505b50565b565b5f47116103fd576040517f08c379a00000000000000000000000000000000000000000000000000000000081526004016103f490611233565b60405180910390fd5b60018080549050106104b9575f4790505f5f90505b6001805490508110156104b6575f60646001838154811061043657610435610e05565b5b905f5260205f20906003020160020154846104519190611251565b61045b91906112bf565b90506104a86001838154811061047457610473610e05565b5b905f5260205f2090600302015f015f9054906101000a900473ffffffffffffffffffffffffffffffffffffffff168261080e565b508080600101915050610412565b50505b565b5f5f9054906101000a900473ffffffffffffffffffffffffffffffffffffffff1673ffffffffffffffffffffffffffffffffffffffff163373ffffffffffffffffffffffffffffffffffffffff1614610549576040517f08c379a000000000000000000000000000000000000000000000000000000000815260040161054090610de7565b60405180910390fd5b5f5f905060018080549050106105f3575f5f90505b6001805490508110156105f1578473ffffffffffffffffffffffffffffffffffffffff166001828154811061059657610595610e05565b5b905f5260205f2090600302015f015f9054906101000a900473ffffffffffffffffffffffffffffffffffffffff1673ffffffffffffffffffffffffffffffffffffffff16036105e457600191505b808060010191505061055e565b505b5f1515811515036106be57600160405180606001604052808673ffffffffffffffffffffffffffffffffffffffff16815260200185815260200184815250908060018154018082558091505060019003905f5260205f2090600302015f909190919091505f820151815f015f6101000a81548173ffffffffffffffffffffffffffffffffffffffff021916908373ffffffffffffffffffffffffffffffffffffffff16021790555060208201518160010190816106b091906112ef565b506040820151816002015550505b50505050565b60606001805480602002602001604051908101604052809291908181526020015f905b82821015610805578382905f5260205f2090600302016040518060600160405290815f82015f9054906101000a900473ffffffffffffffffffffffffffffffffffffffff1673ffffffffffffffffffffffffffffffffffffffff1673ffffffffffffffffffffffffffffffffffffffff16815260200160018201805461076c90610ef2565b80601f016020809104026020016040519081016040528092919081815260200182805461079890610ef2565b80156107e35780601f106107ba576101008083540402835291602001916107e3565b820191905f5260205f20905b8154815290600101906020018083116107c657829003601f168201915b50505050508152602001600282015481525050815260200190600101906106e7565b50505050905090565b5f8273ffffffffffffffffffffffffffffffffffffffff1682604051610833906113eb565b5f6040518083038185875af1925050503d805f811461086d576040519150601f19603f3d011682016040523d82523d5f602084013e610872565b606091505b50509050806108b6576040517f08c379a00000000000000000000000000000000000000000000000000000000081526004016108ad90611449565b60405180910390fd5b505050565b5080546108c790610ef2565b5f825580601f106108d857506108f5565b601f0160209004905f5260205f20908101906108f491906108f8565b5b50565b5b8082111561090f575f815f9055506001016108f9565b5090565b5f819050919050565b61092581610913565b82525050565b5f60208201905061093e5f83018461091c565b92915050565b5f604051905090565b5f5ffd5b5f5ffd5b5f73ffffffffffffffffffffffffffffffffffffffff82169050919050565b5f61097e82610955565b9050919050565b61098e81610974565b8114610998575f5ffd5b50565b5f813590506109a981610985565b92915050565b5f602082840312156109c4576109c361094d565b5b5f6109d18482850161099b565b91505092915050565b5f6109e482610955565b9050919050565b6109f4816109da565b81146109fe575f5ffd5b50565b5f81359050610a0f816109eb565b92915050565b5f5ffd5b5f5ffd5b5f601f19601f8301169050919050565b7f4e487b71000000000000000000000000000000000000000000000000000000005f52604160045260245ffd5b610a6382610a1d565b810181811067ffffffffffffffff82111715610a8257610a81610a2d565b5b80604052505050565b5f610a94610944565b9050610aa08282610a5a565b919050565b5f67ffffffffffffffff821115610abf57610abe610a2d565b5b610ac882610a1d565b9050602081019050919050565b828183375f83830152505050565b5f610af5610af084610aa5565b610a8b565b905082815260208101848484011115610b1157610b10610a19565b5b610b1c848285610ad5565b509392505050565b5f82601f830112610b3857610b37610a15565b5b8135610b48848260208601610ae3565b91505092915050565b610b5a81610913565b8114610b64575f5ffd5b50565b5f81359050610b7581610b51565b92915050565b5f5f5f60608486031215610b9257610b9161094d565b5b5f610b9f86828701610a01565b935050602084013567ffffffffffffffff811115610bc057610bbf610951565b5b610bcc86828701610b24565b9250506040610bdd86828701610b67565b9150509250925092565b5f81519050919050565b5f82825260208201905092915050565b5f819050602082019050919050565b610c19816109da565b82525050565b5f81519050919050565b5f82825260208201905092915050565b8281835e5f83830152505050565b5f610c5182610c1f565b610c5b8185610c29565b9350610c6b818560208601610c39565b610c7481610a1d565b840191505092915050565b610c8881610913565b82525050565b5f606083015f830151610ca35f860182610c10565b5060208301518482036020860152610cbb8282610c47565b9150506040830151610cd06040860182610c7f565b508091505092915050565b5f610ce68383610c8e565b905092915050565b5f602082019050919050565b5f610d0482610be7565b610d0e8185610bf1565b935083602082028501610d2085610c01565b805f5b85811015610d5b5784840389528151610d3c8582610cdb565b9450610d4783610cee565b925060208a01995050600181019050610d23565b50829750879550505050505092915050565b5f6020820190508181035f830152610d858184610cfa565b905092915050565b5f82825260208201905092915050565b7f4f6e6c79206f776e65722063616e2063616c6c000000000000000000000000005f82015250565b5f610dd1601383610d8d565b9150610ddc82610d9d565b602082019050919050565b5f6020820190508181035f830152610dfe81610dc5565b9050919050565b7f4e487b71000000000000000000000000000000000000000000000000000000005f52603260045260245ffd5b7f4e487b71000000000000000000000000000000000000000000000000000000005f52601160045260245ffd5b5f610e6982610913565b9150610e7483610913565b9250828203905081811115610e8c57610e8b610e32565b5b92915050565b5f610e9c82610913565b9150610ea783610913565b9250828201905080821115610ebf57610ebe610e32565b5b92915050565b7f4e487b71000000000000000000000000000000000000000000000000000000005f52602260045260245ffd5b5f6002820490506001821680610f0957607f821691505b602082108103610f1c57610f1b610ec5565b5b50919050565b5f81549050610f3081610ef2565b9050919050565b5f819050815f5260205f209050919050565b5f6020601f8301049050919050565b5f82821b905092915050565b5f60088302610f937fffffffffffffffffffffffffffffffffffffffffffffffffffffffffffffffff82610f58565b610f9d8683610f58565b95508019841693508086168417925050509392505050565b5f819050919050565b5f610fd8610fd3610fce84610913565b610fb5565b610913565b9050919050565b5f819050919050565b610ff183610fbe565b611005610ffd82610fdf565b848454610f64565b825550505050565b5f5f905090565b61101c61100d565b611027818484610fe8565b505050565b5b8181101561104a5761103f5f82611014565b60018101905061102d565b5050565b601f82111561108f5761106081610f37565b61106984610f49565b81016020851015611078578190505b61108c61108485610f49565b83018261102c565b50505b505050565b5f82821c905092915050565b5f6110af5f1984600802611094565b1980831691505092915050565b5f6110c783836110a0565b9150826002028217905092915050565b8181036110e55750506111ba565b6110ee82610f22565b67ffffffffffffffff81111561110757611106610a2d565b5b6111118254610ef2565b61111c82828561104e565b5f601f831160018114611149575f8415611137578287015490505b61114185826110bc565b8655506111b3565b601f19841661115787610f37565b965061116286610f37565b5f5b8281101561118957848901548255600182019150600185019450602081019050611164565b868310156111a657848901546111a2601f8916826110a0565b8355505b6001600288020188555050505b5050505050505b565b7f4e487b71000000000000000000000000000000000000000000000000000000005f52603160045260245ffd5b7f4e6f204d6f6e65790000000000000000000000000000000000000000000000005f82015250565b5f61121d600883610d8d565b9150611228826111e9565b602082019050919050565b5f6020820190508181035f83015261124a81611211565b9050919050565b5f61125b82610913565b915061126683610913565b925082820261127481610913565b9150828204841483151761128b5761128a610e32565b5b5092915050565b7f4e487b71000000000000000000000000000000000000000000000000000000005f52601260045260245ffd5b5f6112c982610913565b91506112d483610913565b9250826112e4576112e3611292565b5b828204905092915050565b6112f882610c1f565b67ffffffffffffffff81111561131157611310610a2d565b5b61131b8254610ef2565b61132682828561104e565b5f60209050601f831160018114611357575f8415611345578287015190505b61134f85826110bc565b8655506113b6565b601f19841661136586610f37565b5f5b8281101561138c57848901518255600182019150602085019450602081019050611367565b868310156113a957848901516113a5601f8916826110a0565b8355505b6001600288020188555050505b505050505050565b5f81905092915050565b50565b5f6113d65f836113be565b91506113e1826113c8565b5f82019050919050565b5f6113f5826113cb565b9150819050919050565b7f5472616e73666572206661696c65642e000000000000000000000000000000005f82015250565b5f611433601083610d8d565b915061143e826113ff565b602082019050919050565b5f6020820190508181035f83015261146081611427565b905091905056fea26469706673582212205c6dcee821a3f3a33d0afcb0be4628f0315da6d59353eca6a2609ea3104bbb5d64736f6c634300081f0033",
					"opcodes": "PUSH1 0x80 PUSH1 0x40 MSTORE CALLVALUE DUP1 ISZERO PUSH1 0xE JUMPI PUSH0 PUSH0 REVERT JUMPDEST POP CALLER PUSH0 PUSH0 PUSH2 0x100 EXP DUP2 SLOAD DUP2 PUSH20 0xFFFFFFFFFFFFFFFFFFFFFFFFFFFFFFFFFFFFFFFF MUL NOT AND SWAP1 DUP4 PUSH20 0xFFFFFFFFFFFFFFFFFFFFFFFFFFFFFFFFFFFFFFFF AND MUL OR SWAP1 SSTORE POP PUSH2 0x149D DUP1 PUSH2 0x5B PUSH0 CODECOPY PUSH0 RETURN INVALID PUSH1 0x80 PUSH1 0x40 MSTORE PUSH1 0x4 CALLDATASIZE LT PUSH2 0x54 JUMPI PUSH0 CALLDATALOAD PUSH1 0xE0 SHR DUP1 PUSH4 0x2A08DEDA EQ PUSH2 0x58 JUMPI DUP1 PUSH4 0x369A489D EQ PUSH2 0x82 JUMPI DUP1 PUSH4 0x6E7301FD EQ PUSH2 0xAA JUMPI DUP1 PUSH4 0x7943DA69 EQ PUSH2 0xB4 JUMPI DUP1 PUSH4 0xB499B79A EQ PUSH2 0xCA JUMPI DUP1 PUSH4 0xE83A1B00 EQ PUSH2 0xF2 JUMPI JUMPDEST PUSH0 PUSH0 REVERT JUMPDEST CALLVALUE DUP1 ISZERO PUSH2 0x63 JUMPI PUSH0 PUSH0 REVERT JUMPDEST POP PUSH2 0x6C PUSH2 0x11C JUMP JUMPDEST PUSH1 0x40 MLOAD PUSH2 0x79 SWAP2 SWAP1 PUSH2 0x92B JUMP JUMPDEST PUSH1 0x40 MLOAD DUP1 SWAP2 SUB SWAP1 RETURN JUMPDEST CALLVALUE DUP1 ISZERO PUSH2 0x8D JUMPI PUSH0 PUSH0 REVERT JUMPDEST POP PUSH2 0xA8 PUSH1 0x4 DUP1 CALLDATASIZE SUB DUP2 ADD SWAP1 PUSH2 0xA3 SWAP2 SWAP1 PUSH2 0x9AF JUMP JUMPDEST PUSH2 0x123 JUMP JUMPDEST STOP JUMPDEST PUSH2 0xB2 PUSH2 0x3B9 JUMP JUMPDEST STOP JUMPDEST CALLVALUE DUP1 ISZERO PUSH2 0xBF JUMPI PUSH0 PUSH0 REVERT JUMPDEST POP PUSH2 0xC8 PUSH2 0x3BB JUMP JUMPDEST STOP JUMPDEST CALLVALUE DUP1 ISZERO PUSH2 0xD5 JUMPI PUSH0 PUSH0 REVERT JUMPDEST POP PUSH2 0xF0 PUSH1 0x4 DUP1 CALLDATASIZE SUB DUP2 ADD SWAP1 PUSH2 0xEB SWAP2 SWAP1 PUSH2 0xB7B JUMP JUMPDEST PUSH2 0x4BB JUMP JUMPDEST STOP JUMPDEST CALLVALUE DUP1 ISZERO PUSH2 0xFD JUMPI PUSH0 PUSH0 REVERT JUMPDEST POP PUSH2 0x106 PUSH2 0x6C4 JUMP JUMPDEST PUSH1 0x40 MLOAD PUSH2 0x113 SWAP2 SWAP1 PUSH2 0xD6D JUMP JUMPDEST PUSH1 0x40 MLOAD DUP1 SWAP2 SUB SWAP1 RETURN JUMPDEST PUSH0 SELFBALANCE SWAP1 POP SWAP1 JUMP JUMPDEST PUSH0 PUSH0 SWAP1 SLOAD SWAP1 PUSH2 0x100 EXP SWAP1 DIV PUSH20 0xFFFFFFFFFFFFFFFFFFFFFFFFFFFFFFFFFFFFFFFF AND PUSH20 0xFFFFFFFFFFFFFFFFFFFFFFFFFFFFFFFFFFFFFFFF AND CALLER PUSH20 0xFFFFFFFFFFFFFFFFFFFFFFFFFFFFFFFFFFFFFFFF AND EQ PUSH2 0x1B1 JUMPI PUSH1 0x40 MLOAD PUSH32 0x8C379A000000000000000000000000000000000000000000000000000000000 DUP2 MSTORE PUSH1 0x4 ADD PUSH2 0x1A8 SWAP1 PUSH2 0xDE7 JUMP JUMPDEST PUSH1 0x40 MLOAD DUP1 SWAP2 SUB SWAP1 REVERT JUMPDEST PUSH1 0x1 DUP1 DUP1 SLOAD SWAP1 POP LT PUSH2 0x3B6 JUMPI PUSH0 PUSH0 SWAP1 POP JUMPDEST PUSH1 0x1 DUP1 SLOAD SWAP1 POP DUP2 LT ISZERO PUSH2 0x3B4 JUMPI DUP2 PUSH20 0xFFFFFFFFFFFFFFFFFFFFFFFFFFFFFFFFFFFFFFFF AND PUSH1 0x1 DUP3 DUP2 SLOAD DUP2 LT PUSH2 0x1FA JUMPI PUSH2 0x1F9 PUSH2 0xE05 JUMP JUMPDEST JUMPDEST SWAP1 PUSH0 MSTORE PUSH1 0x20 PUSH0 KECCAK256 SWAP1 PUSH1 0x3 MUL ADD PUSH0 ADD PUSH0 SWAP1 SLOAD SWAP1 PUSH2 0x100 EXP SWAP1 DIV PUSH20 0xFFFFFFFFFFFFFFFFFFFFFFFFFFFFFFFFFFFFFFFF AND PUSH20 0xFFFFFFFFFFFFFFFFFFFFFFFFFFFFFFFFFFFFFFFF AND SUB PUSH2 0x3A7 JUMPI PUSH0 DUP2 SWAP1 POP JUMPDEST PUSH1 0x1 DUP1 DUP1 SLOAD SWAP1 POP PUSH2 0x259 SWAP2 SWAP1 PUSH2 0xE5F JUMP JUMPDEST DUP2 LT ISZERO PUSH2 0x33D JUMPI PUSH1 0x1 DUP1 DUP3 PUSH2 0x26E SWAP2 SWAP1 PUSH2 0xE92 JUMP JUMPDEST DUP2 SLOAD DUP2 LT PUSH2 0x27F JUMPI PUSH2 0x27E PUSH2 0xE05 JUMP JUMPDEST JUMPDEST SWAP1 PUSH0 MSTORE PUSH1 0x20 PUSH0 KECCAK256 SWAP1 PUSH1 0x3 MUL ADD PUSH1 0x1 DUP3 DUP2 SLOAD DUP2 LT PUSH2 0x29F JUMPI PUSH2 0x29E PUSH2 0xE05 JUMP JUMPDEST JUMPDEST SWAP1 PUSH0 MSTORE PUSH1 0x20 PUSH0 KECCAK256 SWAP1 PUSH1 0x3 MUL ADD PUSH0 DUP3 ADD PUSH0 SWAP1 SLOAD SWAP1 PUSH2 0x100 EXP SWAP1 DIV PUSH20 0xFFFFFFFFFFFFFFFFFFFFFFFFFFFFFFFFFFFFFFFF AND DUP2 PUSH0 ADD PUSH0 PUSH2 0x100 EXP DUP2 SLOAD DUP2 PUSH20 0xFFFFFFFFFFFFFFFFFFFFFFFFFFFFFFFFFFFFFFFF MUL NOT AND SWAP1 DUP4 PUSH20 0xFFFFFFFFFFFFFFFFFFFFFFFFFFFFFFFFFFFFFFFF AND MUL OR SWAP1 SSTORE POP PUSH1 0x1 DUP3 ADD DUP2 PUSH1 0x1 ADD SWAP1 DUP2 PUSH2 0x322 SWAP2 SWAP1 PUSH2 0x10D7 JUMP JUMPDEST POP PUSH1 0x2 DUP3 ADD SLOAD DUP2 PUSH1 0x2 ADD SSTORE SWAP1 POP POP DUP1 DUP1 PUSH1 0x1 ADD SWAP2 POP POP PUSH2 0x248 JUMP JUMPDEST POP PUSH1 0x1 DUP1 SLOAD DUP1 PUSH2 0x350 JUMPI PUSH2 0x34F PUSH2 0x11BC JUMP JUMPDEST JUMPDEST PUSH1 0x1 SWAP1 SUB DUP2 DUP2 SWAP1 PUSH0 MSTORE PUSH1 0x20 PUSH0 KECCAK256 SWAP1 PUSH1 0x3 MUL ADD PUSH0 PUSH0 DUP3 ADD PUSH0 PUSH2 0x100 EXP DUP2 SLOAD SWAP1 PUSH20 0xFFFFFFFFFFFFFFFFFFFFFFFFFFFFFFFFFFFFFFFF MUL NOT AND SWAP1 SSTORE PUSH1 0x1 DUP3 ADD PUSH0 PUSH2 0x397 SWAP2 SWAP1 PUSH2 0x8BB JUMP JUMPDEST PUSH1 0x2 DUP3 ADD PUSH0 SWAP1 SSTORE POP POP SWAP1 SSTORE PUSH2 0x3B4 JUMP JUMPDEST DUP1 DUP1 PUSH1 0x1 ADD SWAP2 POP POP PUSH2 0x1C2 JUMP JUMPDEST POP JUMPDEST POP JUMP JUMPDEST JUMP JUMPDEST PUSH0 SELFBALANCE GT PUSH2 0x3FD JUMPI PUSH1 0x40 MLOAD PUSH32 0x8C379A000000000000000000000000000000000000000000000000000000000 DUP2 MSTORE PUSH1 0x4 ADD PUSH2 0x3F4 SWAP1 PUSH2 0x1233 JUMP JUMPDEST PUSH1 0x40 MLOAD DUP1 SWAP2 SUB SWAP1 REVERT JUMPDEST PUSH1 0x1 DUP1 DUP1 SLOAD SWAP1 POP LT PUSH2 0x4B9 JUMPI PUSH0 SELFBALANCE SWAP1 POP PUSH0 PUSH0 SWAP1 POP JUMPDEST PUSH1 0x1 DUP1 SLOAD SWAP1 POP DUP2 LT ISZERO PUSH2 0x4B6 JUMPI PUSH0 PUSH1 0x64 PUSH1 0x1 DUP4 DUP2 SLOAD DUP2 LT PUSH2 0x436 JUMPI PUSH2 0x435 PUSH2 0xE05 JUMP JUMPDEST JUMPDEST SWAP1 PUSH0 MSTORE PUSH1 0x20 PUSH0 KECCAK256 SWAP1 PUSH1 0x3 MUL ADD PUSH1 0x2 ADD SLOAD DUP5 PUSH2 0x451 SWAP2 SWAP1 PUSH2 0x1251 JUMP JUMPDEST PUSH2 0x45B SWAP2 SWAP1 PUSH2 0x12BF JUMP JUMPDEST SWAP1 POP PUSH2 0x4A8 PUSH1 0x1 DUP4 DUP2 SLOAD DUP2 LT PUSH2 0x474 JUMPI PUSH2 0x473 PUSH2 0xE05 JUMP JUMPDEST JUMPDEST SWAP1 PUSH0 MSTORE PUSH1 0x20 PUSH0 KECCAK256 SWAP1 PUSH1 0x3 MUL ADD PUSH0 ADD PUSH0 SWAP1 SLOAD SWAP1 PUSH2 0x100 EXP SWAP1 DIV PUSH20 0xFFFFFFFFFFFFFFFFFFFFFFFFFFFFFFFFFFFFFFFF AND DUP3 PUSH2 0x80E JUMP JUMPDEST POP DUP1 DUP1 PUSH1 0x1 ADD SWAP2 POP POP PUSH2 0x412 JUMP JUMPDEST POP POP JUMPDEST JUMP JUMPDEST PUSH0 PUSH0 SWAP1 SLOAD SWAP1 PUSH2 0x100 EXP SWAP1 DIV PUSH20 0xFFFFFFFFFFFFFFFFFFFFFFFFFFFFFFFFFFFFFFFF AND PUSH20 0xFFFFFFFFFFFFFFFFFFFFFFFFFFFFFFFFFFFFFFFF AND CALLER PUSH20 0xFFFFFFFFFFFFFFFFFFFFFFFFFFFFFFFFFFFFFFFF AND EQ PUSH2 0x549 JUMPI PUSH1 0x40 MLOAD PUSH32 0x8C379A000000000000000000000000000000000000000000000000000000000 DUP2 MSTORE PUSH1 0x4 ADD PUSH2 0x540 SWAP1 PUSH2 0xDE7 JUMP JUMPDEST PUSH1 0x40 MLOAD DUP1 SWAP2 SUB SWAP1 REVERT JUMPDEST PUSH0 PUSH0 SWAP1 POP PUSH1 0x1 DUP1 DUP1 SLOAD SWAP1 POP LT PUSH2 0x5F3 JUMPI PUSH0 PUSH0 SWAP1 POP JUMPDEST PUSH1 0x1 DUP1 SLOAD SWAP1 POP DUP2 LT ISZERO PUSH2 0x5F1 JUMPI DUP5 PUSH20 0xFFFFFFFFFFFFFFFFFFFFFFFFFFFFFFFFFFFFFFFF AND PUSH1 0x1 DUP3 DUP2 SLOAD DUP2 LT PUSH2 0x596 JUMPI PUSH2 0x595 PUSH2 0xE05 JUMP JUMPDEST JUMPDEST SWAP1 PUSH0 MSTORE PUSH1 0x20 PUSH0 KECCAK256 SWAP1 PUSH1 0x3 MUL ADD PUSH0 ADD PUSH0 SWAP1 SLOAD SWAP1 PUSH2 0x100 EXP SWAP1 DIV PUSH20 0xFFFFFFFFFFFFFFFFFFFFFFFFFFFFFFFFFFFFFFFF AND PUSH20 0xFFFFFFFFFFFFFFFFFFFFFFFFFFFFFFFFFFFFFFFF AND SUB PUSH2 0x5E4 JUMPI PUSH1 0x1 SWAP2 POP JUMPDEST DUP1 DUP1 PUSH1 0x1 ADD SWAP2 POP POP PUSH2 0x55E JUMP JUMPDEST POP JUMPDEST PUSH0 ISZERO ISZERO DUP2 ISZERO ISZERO SUB PUSH2 0x6BE JUMPI PUSH1 0x1 PUSH1 0x40 MLOAD DUP1 PUSH1 0x60 ADD PUSH1 0x40 MSTORE DUP1 DUP7 PUSH20 0xFFFFFFFFFFFFFFFFFFFFFFFFFFFFFFFFFFFFFFFF AND DUP2 MSTORE PUSH1 0x20 ADD DUP6 DUP2 MSTORE PUSH1 0x20 ADD DUP5 DUP2 MSTORE POP SWAP1 DUP1 PUSH1 0x1 DUP2 SLOAD ADD DUP1 DUP3 SSTORE DUP1 SWAP2 POP POP PUSH1 0x1 SWAP1 SUB SWAP1 PUSH0 MSTORE PUSH1 0x20 PUSH0 KECCAK256 SWAP1 PUSH1 0x3 MUL ADD PUSH0 SWAP1 SWAP2 SWAP1 SWAP2 SWAP1 SWAP2 POP PUSH0 DUP3 ADD MLOAD DUP2 PUSH0 ADD PUSH0 PUSH2 0x100 EXP DUP2 SLOAD DUP2 PUSH20 0xFFFFFFFFFFFFFFFFFFFFFFFFFFFFFFFFFFFFFFFF MUL NOT AND SWAP1 DUP4 PUSH20 0xFFFFFFFFFFFFFFFFFFFFFFFFFFFFFFFFFFFFFFFF AND MUL OR SWAP1 SSTORE POP PUSH1 0x20 DUP3 ADD MLOAD DUP2 PUSH1 0x1 ADD SWAP1 DUP2 PUSH2 0x6B0 SWAP2 SWAP1 PUSH2 0x12EF JUMP JUMPDEST POP PUSH1 0x40 DUP3 ADD MLOAD DUP2 PUSH1 0x2 ADD SSTORE POP POP JUMPDEST POP POP POP POP JUMP JUMPDEST PUSH1 0x60 PUSH1 0x1 DUP1 SLOAD DUP1 PUSH1 0x20 MUL PUSH1 0x20 ADD PUSH1 0x40 MLOAD SWAP1 DUP2 ADD PUSH1 0x40 MSTORE DUP1 SWAP3 SWAP2 SWAP1 DUP2 DUP2 MSTORE PUSH1 0x20 ADD PUSH0 SWAP1 JUMPDEST DUP3 DUP3 LT ISZERO PUSH2 0x805 JUMPI DUP4 DUP3 SWAP1 PUSH0 MSTORE PUSH1 0x20 PUSH0 KECCAK256 SWAP1 PUSH1 0x3 MUL ADD PUSH1 0x40 MLOAD DUP1 PUSH1 0x60 ADD PUSH1 0x40 MSTORE SWAP1 DUP2 PUSH0 DUP3 ADD PUSH0 SWAP1 SLOAD SWAP1 PUSH2 0x100 EXP SWAP1 DIV PUSH20 0xFFFFFFFFFFFFFFFFFFFFFFFFFFFFFFFFFFFFFFFF AND PUSH20 0xFFFFFFFFFFFFFFFFFFFFFFFFFFFFFFFFFFFFFFFF AND PUSH20 0xFFFFFFFFFFFFFFFFFFFFFFFFFFFFFFFFFFFFFFFF AND DUP2 MSTORE PUSH1 0x20 ADD PUSH1 0x1 DUP3 ADD DUP1 SLOAD PUSH2 0x76C SWAP1 PUSH2 0xEF2 JUMP JUMPDEST DUP1 PUSH1 0x1F ADD PUSH1 0x20 DUP1 SWAP2 DIV MUL PUSH1 0x20 ADD PUSH1 0x40 MLOAD SWAP1 DUP2 ADD PUSH1 0x40 MSTORE DUP1 SWAP3 SWAP2 SWAP1 DUP2 DUP2 MSTORE PUSH1 0x20 ADD DUP3 DUP1 SLOAD PUSH2 0x798 SWAP1 PUSH2 0xEF2 JUMP JUMPDEST DUP1 ISZERO PUSH2 0x7E3 JUMPI DUP1 PUSH1 0x1F LT PUSH2 0x7BA JUMPI PUSH2 0x100 DUP1 DUP4 SLOAD DIV MUL DUP4 MSTORE SWAP2 PUSH1 0x20 ADD SWAP2 PUSH2 0x7E3 JUMP JUMPDEST DUP3 ADD SWAP2 SWAP1 PUSH0 MSTORE PUSH1 0x20 PUSH0 KECCAK256 SWAP1 JUMPDEST DUP2 SLOAD DUP2 MSTORE SWAP1 PUSH1 0x1 ADD SWAP1 PUSH1 0x20 ADD DUP1 DUP4 GT PUSH2 0x7C6 JUMPI DUP3 SWAP1 SUB PUSH1 0x1F AND DUP3 ADD SWAP2 JUMPDEST POP POP POP POP POP DUP2 MSTORE PUSH1 0x20 ADD PUSH1 0x2 DUP3 ADD SLOAD DUP2 MSTORE POP POP DUP2 MSTORE PUSH1 0x20 ADD SWAP1 PUSH1 0x1 ADD SWAP1 PUSH2 0x6E7 JUMP JUMPDEST POP POP POP POP SWAP1 POP SWAP1 JUMP JUMPDEST PUSH0 DUP3 PUSH20 0xFFFFFFFFFFFFFFFFFFFFFFFFFFFFFFFFFFFFFFFF AND DUP3 PUSH1 0x40 MLOAD PUSH2 0x833 SWAP1 PUSH2 0x13EB JUMP JUMPDEST PUSH0 PUSH1 0x40 MLOAD DUP1 DUP4 SUB DUP2 DUP6 DUP8 GAS CALL SWAP3 POP POP POP RETURNDATASIZE DUP1 PUSH0 DUP2 EQ PUSH2 0x86D JUMPI PUSH1 0x40 MLOAD SWAP2 POP PUSH1 0x1F NOT PUSH1 0x3F RETURNDATASIZE ADD AND DUP3 ADD PUSH1 0x40 MSTORE RETURNDATASIZE DUP3 MSTORE RETURNDATASIZE PUSH0 PUSH1 0x20 DUP5 ADD RETURNDATACOPY PUSH2 0x872 JUMP JUMPDEST PUSH1 0x60 SWAP2 POP JUMPDEST POP POP SWAP1 POP DUP1 PUSH2 0x8B6 JUMPI PUSH1 0x40 MLOAD PUSH32 0x8C379A000000000000000000000000000000000000000000000000000000000 DUP2 MSTORE PUSH1 0x4 ADD PUSH2 0x8AD SWAP1 PUSH2 0x1449 JUMP JUMPDEST PUSH1 0x40 MLOAD DUP1 SWAP2 SUB SWAP1 REVERT JUMPDEST POP POP POP JUMP JUMPDEST POP DUP1 SLOAD PUSH2 0x8C7 SWAP1 PUSH2 0xEF2 JUMP JUMPDEST PUSH0 DUP3 SSTORE DUP1 PUSH1 0x1F LT PUSH2 0x8D8 JUMPI POP PUSH2 0x8F5 JUMP JUMPDEST PUSH1 0x1F ADD PUSH1 0x20 SWAP1 DIV SWAP1 PUSH0 MSTORE PUSH1 0x20 PUSH0 KECCAK256 SWAP1 DUP2 ADD SWAP1 PUSH2 0x8F4 SWAP2 SWAP1 PUSH2 0x8F8 JUMP JUMPDEST JUMPDEST POP JUMP JUMPDEST JUMPDEST DUP1 DUP3 GT ISZERO PUSH2 0x90F JUMPI PUSH0 DUP2 PUSH0 SWAP1 SSTORE POP PUSH1 0x1 ADD PUSH2 0x8F9 JUMP JUMPDEST POP SWAP1 JUMP JUMPDEST PUSH0 DUP2 SWAP1 POP SWAP2 SWAP1 POP JUMP JUMPDEST PUSH2 0x925 DUP2 PUSH2 0x913 JUMP JUMPDEST DUP3 MSTORE POP POP JUMP JUMPDEST PUSH0 PUSH1 0x20 DUP3 ADD SWAP1 POP PUSH2 0x93E PUSH0 DUP4 ADD DUP5 PUSH2 0x91C JUMP JUMPDEST SWAP3 SWAP2 POP POP JUMP JUMPDEST PUSH0 PUSH1 0x40 MLOAD SWAP1 POP SWAP1 JUMP JUMPDEST PUSH0 PUSH0 REVERT JUMPDEST PUSH0 PUSH0 REVERT JUMPDEST PUSH0 PUSH20 0xFFFFFFFFFFFFFFFFFFFFFFFFFFFFFFFFFFFFFFFF DUP3 AND SWAP1 POP SWAP2 SWAP1 POP JUMP JUMPDEST PUSH0 PUSH2 0x97E DUP3 PUSH2 0x955 JUMP JUMPDEST SWAP1 POP SWAP2 SWAP1 POP JUMP JUMPDEST PUSH2 0x98E DUP2 PUSH2 0x974 JUMP JUMPDEST DUP2 EQ PUSH2 0x998 JUMPI PUSH0 PUSH0 REVERT JUMPDEST POP JUMP JUMPDEST PUSH0 DUP2 CALLDATALOAD SWAP1 POP PUSH2 0x9A9 DUP2 PUSH2 0x985 JUMP JUMPDEST SWAP3 SWAP2 POP POP JUMP JUMPDEST PUSH0 PUSH1 0x20 DUP3 DUP5 SUB SLT ISZERO PUSH2 0x9C4 JUMPI PUSH2 0x9C3 PUSH2 0x94D JUMP JUMPDEST JUMPDEST PUSH0 PUSH2 0x9D1 DUP5 DUP3 DUP6 ADD PUSH2 0x99B JUMP JUMPDEST SWAP2 POP POP SWAP3 SWAP2 POP POP JUMP JUMPDEST PUSH0 PUSH2 0x9E4 DUP3 PUSH2 0x955 JUMP JUMPDEST SWAP1 POP SWAP2 SWAP1 POP JUMP JUMPDEST PUSH2 0x9F4 DUP2 PUSH2 0x9DA JUMP JUMPDEST DUP2 EQ PUSH2 0x9FE JUMPI PUSH0 PUSH0 REVERT JUMPDEST POP JUMP JUMPDEST PUSH0 DUP2 CALLDATALOAD SWAP1 POP PUSH2 0xA0F DUP2 PUSH2 0x9EB JUMP JUMPDEST SWAP3 SWAP2 POP POP JUMP JUMPDEST PUSH0 PUSH0 REVERT JUMPDEST PUSH0 PUSH0 REVERT JUMPDEST PUSH0 PUSH1 0x1F NOT PUSH1 0x1F DUP4 ADD AND SWAP1 POP SWAP2 SWAP1 POP JUMP JUMPDEST PUSH32 0x4E487B7100000000000000000000000000000000000000000000000000000000 PUSH0 MSTORE PUSH1 0x41 PUSH1 0x4 MSTORE PUSH1 0x24 PUSH0 REVERT JUMPDEST PUSH2 0xA63 DUP3 PUSH2 0xA1D JUMP JUMPDEST DUP2 ADD DUP2 DUP2 LT PUSH8 0xFFFFFFFFFFFFFFFF DUP3 GT OR ISZERO PUSH2 0xA82 JUMPI PUSH2 0xA81 PUSH2 0xA2D JUMP JUMPDEST JUMPDEST DUP1 PUSH1 0x40 MSTORE POP POP POP JUMP JUMPDEST PUSH0 PUSH2 0xA94 PUSH2 0x944 JUMP JUMPDEST SWAP1 POP PUSH2 0xAA0 DUP3 DUP3 PUSH2 0xA5A JUMP JUMPDEST SWAP2 SWAP1 POP JUMP JUMPDEST PUSH0 PUSH8 0xFFFFFFFFFFFFFFFF DUP3 GT ISZERO PUSH2 0xABF JUMPI PUSH2 0xABE PUSH2 0xA2D JUMP JUMPDEST JUMPDEST PUSH2 0xAC8 DUP3 PUSH2 0xA1D JUMP JUMPDEST SWAP1 POP PUSH1 0x20 DUP2 ADD SWAP1 POP SWAP2 SWAP1 POP JUMP JUMPDEST DUP3 DUP2 DUP4 CALLDATACOPY PUSH0 DUP4 DUP4 ADD MSTORE POP POP POP JUMP JUMPDEST PUSH0 PUSH2 0xAF5 PUSH2 0xAF0 DUP5 PUSH2 0xAA5 JUMP JUMPDEST PUSH2 0xA8B JUMP JUMPDEST SWAP1 POP DUP3 DUP2 MSTORE PUSH1 0x20 DUP2 ADD DUP5 DUP5 DUP5 ADD GT ISZERO PUSH2 0xB11 JUMPI PUSH2 0xB10 PUSH2 0xA19 JUMP JUMPDEST JUMPDEST PUSH2 0xB1C DUP5 DUP3 DUP6 PUSH2 0xAD5 JUMP JUMPDEST POP SWAP4 SWAP3 POP POP POP JUMP JUMPDEST PUSH0 DUP3 PUSH1 0x1F DUP4 ADD SLT PUSH2 0xB38 JUMPI PUSH2 0xB37 PUSH2 0xA15 JUMP JUMPDEST JUMPDEST DUP2 CALLDATALOAD PUSH2 0xB48 DUP5 DUP3 PUSH1 0x20 DUP7 ADD PUSH2 0xAE3 JUMP JUMPDEST SWAP2 POP POP SWAP3 SWAP2 POP POP JUMP JUMPDEST PUSH2 0xB5A DUP2 PUSH2 0x913 JUMP JUMPDEST DUP2 EQ PUSH2 0xB64 JUMPI PUSH0 PUSH0 REVERT JUMPDEST POP JUMP JUMPDEST PUSH0 DUP2 CALLDATALOAD SWAP1 POP PUSH2 0xB75 DUP2 PUSH2 0xB51 JUMP JUMPDEST SWAP3 SWAP2 POP POP JUMP JUMPDEST PUSH0 PUSH0 PUSH0 PUSH1 0x60 DUP5 DUP7 SUB SLT ISZERO PUSH2 0xB92 JUMPI PUSH2 0xB91 PUSH2 0x94D JUMP JUMPDEST JUMPDEST PUSH0 PUSH2 0xB9F DUP7 DUP3 DUP8 ADD PUSH2 0xA01 JUMP JUMPDEST SWAP4 POP POP PUSH1 0x20 DUP5 ADD CALLDATALOAD PUSH8 0xFFFFFFFFFFFFFFFF DUP2 GT ISZERO PUSH2 0xBC0 JUMPI PUSH2 0xBBF PUSH2 0x951 JUMP JUMPDEST JUMPDEST PUSH2 0xBCC DUP7 DUP3 DUP8 ADD PUSH2 0xB24 JUMP JUMPDEST SWAP3 POP POP PUSH1 0x40 PUSH2 0xBDD DUP7 DUP3 DUP8 ADD PUSH2 0xB67 JUMP JUMPDEST SWAP2 POP POP SWAP3 POP SWAP3 POP SWAP3 JUMP JUMPDEST PUSH0 DUP2 MLOAD SWAP1 POP SWAP2 SWAP1 POP JUMP JUMPDEST PUSH0 DUP3 DUP3 MSTORE PUSH1 0x20 DUP3 ADD SWAP1 POP SWAP3 SWAP2 POP POP JUMP JUMPDEST PUSH0 DUP2 SWAP1 POP PUSH1 0x20 DUP3 ADD SWAP1 POP SWAP2 SWAP1 POP JUMP JUMPDEST PUSH2 0xC19 DUP2 PUSH2 0x9DA JUMP JUMPDEST DUP3 MSTORE POP POP JUMP JUMPDEST PUSH0 DUP2 MLOAD SWAP1 POP SWAP2 SWAP1 POP JUMP JUMPDEST PUSH0 DUP3 DUP3 MSTORE PUSH1 0x20 DUP3 ADD SWAP1 POP SWAP3 SWAP2 POP POP JUMP JUMPDEST DUP3 DUP2 DUP4 MCOPY PUSH0 DUP4 DUP4 ADD MSTORE POP POP POP JUMP JUMPDEST PUSH0 PUSH2 0xC51 DUP3 PUSH2 0xC1F JUMP JUMPDEST PUSH2 0xC5B DUP2 DUP6 PUSH2 0xC29 JUMP JUMPDEST SWAP4 POP PUSH2 0xC6B DUP2 DUP6 PUSH1 0x20 DUP7 ADD PUSH2 0xC39 JUMP JUMPDEST PUSH2 0xC74 DUP2 PUSH2 0xA1D JUMP JUMPDEST DUP5 ADD SWAP2 POP POP SWAP3 SWAP2 POP POP JUMP JUMPDEST PUSH2 0xC88 DUP2 PUSH2 0x913 JUMP JUMPDEST DUP3 MSTORE POP POP JUMP JUMPDEST PUSH0 PUSH1 0x60 DUP4 ADD PUSH0 DUP4 ADD MLOAD PUSH2 0xCA3 PUSH0 DUP7 ADD DUP3 PUSH2 0xC10 JUMP JUMPDEST POP PUSH1 0x20 DUP4 ADD MLOAD DUP5 DUP3 SUB PUSH1 0x20 DUP7 ADD MSTORE PUSH2 0xCBB DUP3 DUP3 PUSH2 0xC47 JUMP JUMPDEST SWAP2 POP POP PUSH1 0x40 DUP4 ADD MLOAD PUSH2 0xCD0 PUSH1 0x40 DUP7 ADD DUP3 PUSH2 0xC7F JUMP JUMPDEST POP DUP1 SWAP2 POP POP SWAP3 SWAP2 POP POP JUMP JUMPDEST PUSH0 PUSH2 0xCE6 DUP4 DUP4 PUSH2 0xC8E JUMP JUMPDEST SWAP1 POP SWAP3 SWAP2 POP POP JUMP JUMPDEST PUSH0 PUSH1 0x20 DUP3 ADD SWAP1 POP SWAP2 SWAP1 POP JUMP JUMPDEST PUSH0 PUSH2 0xD04 DUP3 PUSH2 0xBE7 JUMP JUMPDEST PUSH2 0xD0E DUP2 DUP6 PUSH2 0xBF1 JUMP JUMPDEST SWAP4 POP DUP4 PUSH1 0x20 DUP3 MUL DUP6 ADD PUSH2 0xD20 DUP6 PUSH2 0xC01 JUMP JUMPDEST DUP1 PUSH0 JUMPDEST DUP6 DUP2 LT ISZERO PUSH2 0xD5B JUMPI DUP5 DUP5 SUB DUP10 MSTORE DUP2 MLOAD PUSH2 0xD3C DUP6 DUP3 PUSH2 0xCDB JUMP JUMPDEST SWAP5 POP PUSH2 0xD47 DUP4 PUSH2 0xCEE JUMP JUMPDEST SWAP3 POP PUSH1 0x20 DUP11 ADD SWAP10 POP POP PUSH1 0x1 DUP2 ADD SWAP1 POP PUSH2 0xD23 JUMP JUMPDEST POP DUP3 SWAP8 POP DUP8 SWAP6 POP POP POP POP POP POP SWAP3 SWAP2 POP POP JUMP JUMPDEST PUSH0 PUSH1 0x20 DUP3 ADD SWAP1 POP DUP2 DUP2 SUB PUSH0 DUP4 ADD MSTORE PUSH2 0xD85 DUP2 DUP5 PUSH2 0xCFA JUMP JUMPDEST SWAP1 POP SWAP3 SWAP2 POP POP JUMP JUMPDEST PUSH0 DUP3 DUP3 MSTORE PUSH1 0x20 DUP3 ADD SWAP1 POP SWAP3 SWAP2 POP POP JUMP JUMPDEST PUSH32 0x4F6E6C79206F776E65722063616E2063616C6C00000000000000000000000000 PUSH0 DUP3 ADD MSTORE POP JUMP JUMPDEST PUSH0 PUSH2 0xDD1 PUSH1 0x13 DUP4 PUSH2 0xD8D JUMP JUMPDEST SWAP2 POP PUSH2 0xDDC DUP3 PUSH2 0xD9D JUMP JUMPDEST PUSH1 0x20 DUP3 ADD SWAP1 POP SWAP2 SWAP1 POP JUMP JUMPDEST PUSH0 PUSH1 0x20 DUP3 ADD SWAP1 POP DUP2 DUP2 SUB PUSH0 DUP4 ADD MSTORE PUSH2 0xDFE DUP2 PUSH2 0xDC5 JUMP JUMPDEST SWAP1 POP SWAP2 SWAP1 POP JUMP JUMPDEST PUSH32 0x4E487B7100000000000000000000000000000000000000000000000000000000 PUSH0 MSTORE PUSH1 0x32 PUSH1 0x4 MSTORE PUSH1 0x24 PUSH0 REVERT JUMPDEST PUSH32 0x4E487B7100000000000000000000000000000000000000000000000000000000 PUSH0 MSTORE PUSH1 0x11 PUSH1 0x4 MSTORE PUSH1 0x24 PUSH0 REVERT JUMPDEST PUSH0 PUSH2 0xE69 DUP3 PUSH2 0x913 JUMP JUMPDEST SWAP2 POP PUSH2 0xE74 DUP4 PUSH2 0x913 JUMP JUMPDEST SWAP3 POP DUP3 DUP3 SUB SWAP1 POP DUP2 DUP2 GT ISZERO PUSH2 0xE8C JUMPI PUSH2 0xE8B PUSH2 0xE32 JUMP JUMPDEST JUMPDEST SWAP3 SWAP2 POP POP JUMP JUMPDEST PUSH0 PUSH2 0xE9C DUP3 PUSH2 0x913 JUMP JUMPDEST SWAP2 POP PUSH2 0xEA7 DUP4 PUSH2 0x913 JUMP JUMPDEST SWAP3 POP DUP3 DUP3 ADD SWAP1 POP DUP1 DUP3 GT ISZERO PUSH2 0xEBF JUMPI PUSH2 0xEBE PUSH2 0xE32 JUMP JUMPDEST JUMPDEST SWAP3 SWAP2 POP POP JUMP JUMPDEST PUSH32 0x4E487B7100000000000000000000000000000000000000000000000000000000 PUSH0 MSTORE PUSH1 0x22 PUSH1 0x4 MSTORE PUSH1 0x24 PUSH0 REVERT JUMPDEST PUSH0 PUSH1 0x2 DUP3 DIV SWAP1 POP PUSH1 0x1 DUP3 AND DUP1 PUSH2 0xF09 JUMPI PUSH1 0x7F DUP3 AND SWAP2 POP JUMPDEST PUSH1 0x20 DUP3 LT DUP2 SUB PUSH2 0xF1C JUMPI PUSH2 0xF1B PUSH2 0xEC5 JUMP JUMPDEST JUMPDEST POP SWAP2 SWAP1 POP JUMP JUMPDEST PUSH0 DUP2 SLOAD SWAP1 POP PUSH2 0xF30 DUP2 PUSH2 0xEF2 JUMP JUMPDEST SWAP1 POP SWAP2 SWAP1 POP JUMP JUMPDEST PUSH0 DUP2 SWAP1 POP DUP2 PUSH0 MSTORE PUSH1 0x20 PUSH0 KECCAK256 SWAP1 POP SWAP2 SWAP1 POP JUMP JUMPDEST PUSH0 PUSH1 0x20 PUSH1 0x1F DUP4 ADD DIV SWAP1 POP SWAP2 SWAP1 POP JUMP JUMPDEST PUSH0 DUP3 DUP3 SHL SWAP1 POP SWAP3 SWAP2 POP POP JUMP JUMPDEST PUSH0 PUSH1 0x8 DUP4 MUL PUSH2 0xF93 PUSH32 0xFFFFFFFFFFFFFFFFFFFFFFFFFFFFFFFFFFFFFFFFFFFFFFFFFFFFFFFFFFFFFFFF DUP3 PUSH2 0xF58 JUMP JUMPDEST PUSH2 0xF9D DUP7 DUP4 PUSH2 0xF58 JUMP JUMPDEST SWAP6 POP DUP1 NOT DUP5 AND SWAP4 POP DUP1 DUP7 AND DUP5 OR SWAP3 POP POP POP SWAP4 SWAP3 POP POP POP JUMP JUMPDEST PUSH0 DUP2 SWAP1 POP SWAP2 SWAP1 POP JUMP JUMPDEST PUSH0 PUSH2 0xFD8 PUSH2 0xFD3 PUSH2 0xFCE DUP5 PUSH2 0x913 JUMP JUMPDEST PUSH2 0xFB5 JUMP JUMPDEST PUSH2 0x913 JUMP JUMPDEST SWAP1 POP SWAP2 SWAP1 POP JUMP JUMPDEST PUSH0 DUP2 SWAP1 POP SWAP2 SWAP1 POP JUMP JUMPDEST PUSH2 0xFF1 DUP4 PUSH2 0xFBE JUMP JUMPDEST PUSH2 0x1005 PUSH2 0xFFD DUP3 PUSH2 0xFDF JUMP JUMPDEST DUP5 DUP5 SLOAD PUSH2 0xF64 JUMP JUMPDEST DUP3 SSTORE POP POP POP POP JUMP JUMPDEST PUSH0 PUSH0 SWAP1 POP SWAP1 JUMP JUMPDEST PUSH2 0x101C PUSH2 0x100D JUMP JUMPDEST PUSH2 0x1027 DUP2 DUP5 DUP5 PUSH2 0xFE8 JUMP JUMPDEST POP POP POP JUMP JUMPDEST JUMPDEST DUP2 DUP2 LT ISZERO PUSH2 0x104A JUMPI PUSH2 0x103F PUSH0 DUP3 PUSH2 0x1014 JUMP JUMPDEST PUSH1 0x1 DUP2 ADD SWAP1 POP PUSH2 0x102D JUMP JUMPDEST POP POP JUMP JUMPDEST PUSH1 0x1F DUP3 GT ISZERO PUSH2 0x108F JUMPI PUSH2 0x1060 DUP2 PUSH2 0xF37 JUMP JUMPDEST PUSH2 0x1069 DUP5 PUSH2 0xF49 JUMP JUMPDEST DUP2 ADD PUSH1 0x20 DUP6 LT ISZERO PUSH2 0x1078 JUMPI DUP2 SWAP1 POP JUMPDEST PUSH2 0x108C PUSH2 0x1084 DUP6 PUSH2 0xF49 JUMP JUMPDEST DUP4 ADD DUP3 PUSH2 0x102C JUMP JUMPDEST POP POP JUMPDEST POP POP POP JUMP JUMPDEST PUSH0 DUP3 DUP3 SHR SWAP1 POP SWAP3 SWAP2 POP POP JUMP JUMPDEST PUSH0 PUSH2 0x10AF PUSH0 NOT DUP5 PUSH1 0x8 MUL PUSH2 0x1094 JUMP JUMPDEST NOT DUP1 DUP4 AND SWAP2 POP POP SWAP3 SWAP2 POP POP JUMP JUMPDEST PUSH0 PUSH2 0x10C7 DUP4 DUP4 PUSH2 0x10A0 JUMP JUMPDEST SWAP2 POP DUP3 PUSH1 0x2 MUL DUP3 OR SWAP1 POP SWAP3 SWAP2 POP POP JUMP JUMPDEST DUP2 DUP2 SUB PUSH2 0x10E5 JUMPI POP POP PUSH2 0x11BA JUMP JUMPDEST PUSH2 0x10EE DUP3 PUSH2 0xF22 JUMP JUMPDEST PUSH8 0xFFFFFFFFFFFFFFFF DUP2 GT ISZERO PUSH2 0x1107 JUMPI PUSH2 0x1106 PUSH2 0xA2D JUMP JUMPDEST JUMPDEST PUSH2 0x1111 DUP3 SLOAD PUSH2 0xEF2 JUMP JUMPDEST PUSH2 0x111C DUP3 DUP3 DUP6 PUSH2 0x104E JUMP JUMPDEST PUSH0 PUSH1 0x1F DUP4 GT PUSH1 0x1 DUP2 EQ PUSH2 0x1149 JUMPI PUSH0 DUP5 ISZERO PUSH2 0x1137 JUMPI DUP3 DUP8 ADD SLOAD SWAP1 POP JUMPDEST PUSH2 0x1141 DUP6 DUP3 PUSH2 0x10BC JUMP JUMPDEST DUP7 SSTORE POP PUSH2 0x11B3 JUMP JUMPDEST PUSH1 0x1F NOT DUP5 AND PUSH2 0x1157 DUP8 PUSH2 0xF37 JUMP JUMPDEST SWAP7 POP PUSH2 0x1162 DUP7 PUSH2 0xF37 JUMP JUMPDEST PUSH0 JUMPDEST DUP3 DUP2 LT ISZERO PUSH2 0x1189 JUMPI DUP5 DUP10 ADD SLOAD DUP3 SSTORE PUSH1 0x1 DUP3 ADD SWAP2 POP PUSH1 0x1 DUP6 ADD SWAP5 POP PUSH1 0x20 DUP2 ADD SWAP1 POP PUSH2 0x1164 JUMP JUMPDEST DUP7 DUP4 LT ISZERO PUSH2 0x11A6 JUMPI DUP5 DUP10 ADD SLOAD PUSH2 0x11A2 PUSH1 0x1F DUP10 AND DUP3 PUSH2 0x10A0 JUMP JUMPDEST DUP4 SSTORE POP JUMPDEST PUSH1 0x1 PUSH1 0x2 DUP9 MUL ADD DUP9 SSTORE POP POP POP JUMPDEST POP POP POP POP POP POP JUMPDEST JUMP JUMPDEST PUSH32 0x4E487B7100000000000000000000000000000000000000000000000000000000 PUSH0 MSTORE PUSH1 0x31 PUSH1 0x4 MSTORE PUSH1 0x24 PUSH0 REVERT JUMPDEST PUSH32 0x4E6F204D6F6E6579000000000000000000000000000000000000000000000000 PUSH0 DUP3 ADD MSTORE POP JUMP JUMPDEST PUSH0 PUSH2 0x121D PUSH1 0x8 DUP4 PUSH2 0xD8D JUMP JUMPDEST SWAP2 POP PUSH2 0x1228 DUP3 PUSH2 0x11E9 JUMP JUMPDEST PUSH1 0x20 DUP3 ADD SWAP1 POP SWAP2 SWAP1 POP JUMP JUMPDEST PUSH0 PUSH1 0x20 DUP3 ADD SWAP1 POP DUP2 DUP2 SUB PUSH0 DUP4 ADD MSTORE PUSH2 0x124A DUP2 PUSH2 0x1211 JUMP JUMPDEST SWAP1 POP SWAP2 SWAP1 POP JUMP JUMPDEST PUSH0 PUSH2 0x125B DUP3 PUSH2 0x913 JUMP JUMPDEST SWAP2 POP PUSH2 0x1266 DUP4 PUSH2 0x913 JUMP JUMPDEST SWAP3 POP DUP3 DUP3 MUL PUSH2 0x1274 DUP2 PUSH2 0x913 JUMP JUMPDEST SWAP2 POP DUP3 DUP3 DIV DUP5 EQ DUP4 ISZERO OR PUSH2 0x128B JUMPI PUSH2 0x128A PUSH2 0xE32 JUMP JUMPDEST JUMPDEST POP SWAP3 SWAP2 POP POP JUMP JUMPDEST PUSH32 0x4E487B7100000000000000000000000000000000000000000000000000000000 PUSH0 MSTORE PUSH1 0x12 PUSH1 0x4 MSTORE PUSH1 0x24 PUSH0 REVERT JUMPDEST PUSH0 PUSH2 0x12C9 DUP3 PUSH2 0x913 JUMP JUMPDEST SWAP2 POP PUSH2 0x12D4 DUP4 PUSH2 0x913 JUMP JUMPDEST SWAP3 POP DUP3 PUSH2 0x12E4 JUMPI PUSH2 0x12E3 PUSH2 0x1292 JUMP JUMPDEST JUMPDEST DUP3 DUP3 DIV SWAP1 POP SWAP3 SWAP2 POP POP JUMP JUMPDEST PUSH2 0x12F8 DUP3 PUSH2 0xC1F JUMP JUMPDEST PUSH8 0xFFFFFFFFFFFFFFFF DUP2 GT ISZERO PUSH2 0x1311 JUMPI PUSH2 0x1310 PUSH2 0xA2D JUMP JUMPDEST JUMPDEST PUSH2 0x131B DUP3 SLOAD PUSH2 0xEF2 JUMP JUMPDEST PUSH2 0x1326 DUP3 DUP3 DUP6 PUSH2 0x104E JUMP JUMPDEST PUSH0 PUSH1 0x20 SWAP1 POP PUSH1 0x1F DUP4 GT PUSH1 0x1 DUP2 EQ PUSH2 0x1357 JUMPI PUSH0 DUP5 ISZERO PUSH2 0x1345 JUMPI DUP3 DUP8 ADD MLOAD SWAP1 POP JUMPDEST PUSH2 0x134F DUP6 DUP3 PUSH2 0x10BC JUMP JUMPDEST DUP7 SSTORE POP PUSH2 0x13B6 JUMP JUMPDEST PUSH1 0x1F NOT DUP5 AND PUSH2 0x1365 DUP7 PUSH2 0xF37 JUMP JUMPDEST PUSH0 JUMPDEST DUP3 DUP2 LT ISZERO PUSH2 0x138C JUMPI DUP5 DUP10 ADD MLOAD DUP3 SSTORE PUSH1 0x1 DUP3 ADD SWAP2 POP PUSH1 0x20 DUP6 ADD SWAP5 POP PUSH1 0x20 DUP2 ADD SWAP1 POP PUSH2 0x1367 JUMP JUMPDEST DUP7 DUP4 LT ISZERO PUSH2 0x13A9 JUMPI DUP5 DUP10 ADD MLOAD PUSH2 0x13A5 PUSH1 0x1F DUP10 AND DUP3 PUSH2 0x10A0 JUMP JUMPDEST DUP4 SSTORE POP JUMPDEST PUSH1 0x1 PUSH1 0x2 DUP9 MUL ADD DUP9 SSTORE POP POP POP JUMPDEST POP POP POP POP POP POP JUMP JUMPDEST PUSH0 DUP2 SWAP1 POP SWAP3 SWAP2 POP POP JUMP JUMPDEST POP JUMP JUMPDEST PUSH0 PUSH2 0x13D6 PUSH0 DUP4 PUSH2 0x13BE JUMP JUMPDEST SWAP2 POP PUSH2 0x13E1 DUP3 PUSH2 0x13C8 JUMP JUMPDEST PUSH0 DUP3 ADD SWAP1 POP SWAP2 SWAP1 POP JUMP JUMPDEST PUSH0 PUSH2 0x13F5 DUP3 PUSH2 0x13CB JUMP JUMPDEST SWAP2 POP DUP2 SWAP1 POP SWAP2 SWAP1 POP JUMP JUMPDEST PUSH32 0x5472616E73666572206661696C65642E00000000000000000000000000000000 PUSH0 DUP3 ADD MSTORE POP JUMP JUMPDEST PUSH0 PUSH2 0x1433 PUSH1 0x10 DUP4 PUSH2 0xD8D JUMP JUMPDEST SWAP2 POP PUSH2 0x143E DUP3 PUSH2 0x13FF JUMP JUMPDEST PUSH1 0x20 DUP3 ADD SWAP1 POP SWAP2 SWAP1 POP JUMP JUMPDEST PUSH0 PUSH1 0x20 DUP3 ADD SWAP1 POP DUP2 DUP2 SUB PUSH0 DUP4 ADD MSTORE PUSH2 0x1460 DUP2 PUSH2 0x1427 JUMP JUMPDEST SWAP1 POP SWAP2 SWAP1 POP JUMP INVALID LOG2 PUSH5 0x6970667358 0x22 SLT KECCAK256 TLOAD PUSH14 0xCEE821A3F3A33D0AFCB0BE4628F0 BALANCE TSTORE 0xA6 0xD5 SWAP4 MSTORE8 EOFCREATE 0xA6 LOG2 PUSH1 0x9E LOG3 LT 0x4B 0xBB TSTORE PUSH5 0x736F6C6343 STOP ADDMOD 0x1F STOP CALLER "
				},
				"gasEstimates": {
					"creation": {
						"codeDepositCost": "1055400",
						"executionCost": "25356",
						"totalCost": "1080756"
					},
					"external": {
						"addWaitress(address,string,uint256)": "infinite",
						"addtips()": "141",
						"distributeBalance()": "infinite",
						"removeWaitress(address)": "infinite",
						"viewWaitress()": "infinite",
						"viewtips()": "312"
					},
					"internal": {
						"_transferFunds(address payable,uint256)": "infinite"
					}
				},
				"methodIdentifiers": {
					"addWaitress(address,string,uint256)": "b499b79a",
					"addtips()": "6e7301fd",
					"distributeBalance()": "7943da69",
					"removeWaitress(address)": "369a489d",
					"viewWaitress()": "e83a1b00",
					"viewtips()": "2a08deda"
				}
			},
			"storageLayout": {
				"storage": [
					{
						"astId": 3,
						"contract": "tipjar.sol:tips",
						"label": "owner",
						"offset": 0,
						"slot": "0",
						"type": "t_address"
					},
					{
						"astId": 39,
						"contract": "tipjar.sol:tips",
						"label": "waitress",
						"offset": 0,
						"slot": "1",
						"type": "t_array(t_struct(Waitress)35_storage)dyn_storage"
					}
				],
				"types": {
					"t_address": {
						"encoding": "inplace",
						"label": "address",
						"numberOfBytes": "20"
					},
					"t_address_payable": {
						"encoding": "inplace",
						"label": "address payable",
						"numberOfBytes": "20"
					},
					"t_array(t_struct(Waitress)35_storage)dyn_storage": {
						"base": "t_struct(Waitress)35_storage",
						"encoding": "dynamic_array",
						"label": "struct tips.Waitress[]",
						"numberOfBytes": "32"
					},
					"t_string_storage": {
						"encoding": "bytes",
						"label": "string",
						"numberOfBytes": "32"
					},
					"t_struct(Waitress)35_storage": {
						"encoding": "inplace",
						"label": "struct tips.Waitress",
						"members": [
							{
								"astId": 30,
								"contract": "tipjar.sol:tips",
								"label": "walletAddress",
								"offset": 0,
								"slot": "0",
								"type": "t_address_payable"
							},
							{
								"astId": 32,
								"contract": "tipjar.sol:tips",
								"label": "name",
								"offset": 0,
								"slot": "1",
								"type": "t_string_storage"
							},
							{
								"astId": 34,
								"contract": "tipjar.sol:tips",
								"label": "percent",
								"offset": 0,
								"slot": "2",
								"type": "t_uint256"
							}
						],
						"numberOfBytes": "96"
					},
					"t_uint256": {
						"encoding": "inplace",
						"label": "uint256",
						"numberOfBytes": "32"
					}
				}
			},
			"userdoc": {
				"kind": "user",
				"methods": {},
				"version": 1
			}
		}
	}
}